{
  "_format": "hh-sol-artifact-1",
  "contractName": "DragonBallSuperLedger",
  "sourceName": "contracts/DragonBallSuperLedger.sol",
  "abi": [
    {
      "inputs": [
        {
          "internalType": "contract ERC20",
          "name": "_communityToken",
          "type": "address"
        }
      ],
      "stateMutability": "nonpayable",
      "type": "constructor"
    },
    {
      "anonymous": false,
      "inputs": [
        {
          "indexed": true,
          "internalType": "address",
          "name": "owner",
          "type": "address"
        },
        {
          "indexed": true,
          "internalType": "address",
          "name": "approved",
          "type": "address"
        },
        {
          "indexed": true,
          "internalType": "uint256",
          "name": "tokenId",
          "type": "uint256"
        }
      ],
      "name": "Approval",
      "type": "event"
    },
    {
      "anonymous": false,
      "inputs": [
        {
          "indexed": true,
          "internalType": "address",
          "name": "owner",
          "type": "address"
        },
        {
          "indexed": true,
          "internalType": "address",
          "name": "operator",
          "type": "address"
        },
        {
          "indexed": false,
          "internalType": "bool",
          "name": "approved",
          "type": "bool"
        }
      ],
      "name": "ApprovalForAll",
      "type": "event"
    },
    {
      "anonymous": false,
      "inputs": [
        {
          "indexed": false,
          "internalType": "uint256",
          "name": "_fromTokenId",
          "type": "uint256"
        },
        {
          "indexed": false,
          "internalType": "uint256",
          "name": "_toTokenId",
          "type": "uint256"
        }
      ],
      "name": "BatchMetadataUpdate",
      "type": "event"
    },
    {
      "anonymous": false,
      "inputs": [
        {
          "indexed": false,
          "internalType": "uint256",
          "name": "_tokenId",
          "type": "uint256"
        }
      ],
      "name": "MetadataUpdate",
      "type": "event"
    },
    {
      "anonymous": false,
      "inputs": [
        {
          "indexed": true,
          "internalType": "uint256",
          "name": "tokenId",
          "type": "uint256"
        },
        {
          "indexed": true,
          "internalType": "address",
          "name": "seller",
          "type": "address"
        },
        {
          "indexed": false,
          "internalType": "uint256",
          "name": "price",
          "type": "uint256"
        }
      ],
      "name": "NFTListedForSale",
      "type": "event"
    },
    {
      "anonymous": false,
      "inputs": [
        {
          "indexed": true,
          "internalType": "uint256",
          "name": "tokenId",
          "type": "uint256"
        },
        {
          "indexed": true,
          "internalType": "address",
          "name": "buyer",
          "type": "address"
        },
        {
          "indexed": true,
          "internalType": "address",
          "name": "seller",
          "type": "address"
        },
        {
          "indexed": false,
          "internalType": "uint256",
          "name": "price",
          "type": "uint256"
        }
      ],
      "name": "NFTPurchased",
      "type": "event"
    },
    {
      "anonymous": false,
      "inputs": [
        {
          "indexed": true,
          "internalType": "address",
          "name": "previousOwner",
          "type": "address"
        },
        {
          "indexed": true,
          "internalType": "address",
          "name": "newOwner",
          "type": "address"
        }
      ],
      "name": "OwnershipTransferred",
      "type": "event"
    },
    {
      "anonymous": false,
      "inputs": [
        {
          "indexed": true,
          "internalType": "address",
          "name": "from",
          "type": "address"
        },
        {
          "indexed": true,
          "internalType": "address",
          "name": "to",
          "type": "address"
        },
        {
          "indexed": true,
          "internalType": "uint256",
          "name": "tokenId",
          "type": "uint256"
        }
      ],
      "name": "Transfer",
      "type": "event"
    },
    {
      "inputs": [
        {
          "internalType": "address",
          "name": "to",
          "type": "address"
        },
        {
          "internalType": "uint256",
          "name": "tokenId",
          "type": "uint256"
        }
      ],
      "name": "approve",
      "outputs": [],
      "stateMutability": "nonpayable",
      "type": "function"
    },
    {
      "inputs": [
        {
          "internalType": "address",
          "name": "owner",
          "type": "address"
        }
      ],
      "name": "balanceOf",
      "outputs": [
        {
          "internalType": "uint256",
          "name": "",
          "type": "uint256"
        }
      ],
      "stateMutability": "view",
      "type": "function"
    },
    {
      "inputs": [
        {
          "internalType": "uint256",
          "name": "tokenId",
          "type": "uint256"
        }
      ],
      "name": "buyNFT",
      "outputs": [],
      "stateMutability": "nonpayable",
      "type": "function"
    },
    {
      "inputs": [],
      "name": "communityToken",
      "outputs": [
        {
          "internalType": "contract ERC20",
          "name": "",
          "type": "address"
        }
      ],
      "stateMutability": "view",
      "type": "function"
    },
    {
      "inputs": [],
      "name": "getAllNFTsForSale",
      "outputs": [
        {
          "internalType": "uint256[]",
          "name": "",
          "type": "uint256[]"
        }
      ],
      "stateMutability": "view",
      "type": "function"
    },
    {
      "inputs": [
        {
          "internalType": "uint256",
          "name": "tokenId",
          "type": "uint256"
        }
      ],
      "name": "getApproved",
      "outputs": [
        {
          "internalType": "address",
          "name": "",
          "type": "address"
        }
      ],
      "stateMutability": "view",
      "type": "function"
    },
    {
      "inputs": [],
      "name": "getCurrentTokenId",
      "outputs": [
        {
          "internalType": "uint256",
          "name": "",
          "type": "uint256"
        }
      ],
      "stateMutability": "view",
      "type": "function"
    },
    {
      "inputs": [
        {
          "internalType": "uint256",
          "name": "tokenId",
          "type": "uint256"
        }
      ],
      "name": "getSaleItem",
      "outputs": [
        {
          "components": [
            {
              "internalType": "uint256",
              "name": "tokenId",
              "type": "uint256"
            },
            {
              "internalType": "address",
              "name": "seller",
              "type": "address"
            },
            {
              "internalType": "uint256",
              "name": "price",
              "type": "uint256"
            },
            {
              "internalType": "bool",
              "name": "forSale",
              "type": "bool"
            }
          ],
          "internalType": "struct DragonBallSuperLedger.NFTSaleItem",
          "name": "",
          "type": "tuple"
        }
      ],
      "stateMutability": "view",
      "type": "function"
    },
    {
      "inputs": [
        {
          "internalType": "uint256",
          "name": "tokenId",
          "type": "uint256"
        }
      ],
      "name": "getSaleItemDetails",
      "outputs": [
        {
          "components": [
            {
              "internalType": "uint256",
              "name": "tokenId",
              "type": "uint256"
            },
            {
              "internalType": "address",
              "name": "seller",
              "type": "address"
            },
            {
              "internalType": "uint256",
              "name": "price",
              "type": "uint256"
            },
            {
              "internalType": "bool",
              "name": "forSale",
              "type": "bool"
            }
          ],
          "internalType": "struct DragonBallSuperLedger.NFTSaleItem",
          "name": "",
          "type": "tuple"
        }
      ],
      "stateMutability": "view",
      "type": "function"
    },
    {
      "inputs": [
        {
          "internalType": "address",
          "name": "owner",
          "type": "address"
        },
        {
          "internalType": "address",
          "name": "operator",
          "type": "address"
        }
      ],
      "name": "isApprovedForAll",
      "outputs": [
        {
          "internalType": "bool",
          "name": "",
          "type": "bool"
        }
      ],
      "stateMutability": "view",
      "type": "function"
    },
    {
      "inputs": [
        {
          "internalType": "uint256",
          "name": "tokenId",
          "type": "uint256"
        },
        {
          "internalType": "uint256",
          "name": "price",
          "type": "uint256"
        }
      ],
      "name": "listNFTForSale",
      "outputs": [],
      "stateMutability": "nonpayable",
      "type": "function"
    },
    {
      "inputs": [
        {
          "internalType": "string",
          "name": "_uri",
          "type": "string"
        },
        {
          "internalType": "uint256",
          "name": "priceInCommunityTokens",
          "type": "uint256"
        },
        {
          "internalType": "bool",
          "name": "listForSale",
          "type": "bool"
        }
      ],
      "name": "mint",
      "outputs": [],
      "stateMutability": "nonpayable",
      "type": "function"
    },
    {
      "inputs": [],
      "name": "name",
      "outputs": [
        {
          "internalType": "string",
          "name": "",
          "type": "string"
        }
      ],
      "stateMutability": "view",
      "type": "function"
    },
    {
      "inputs": [],
      "name": "owner",
      "outputs": [
        {
          "internalType": "address",
          "name": "",
          "type": "address"
        }
      ],
      "stateMutability": "view",
      "type": "function"
    },
    {
      "inputs": [
        {
          "internalType": "uint256",
          "name": "tokenId",
          "type": "uint256"
        }
      ],
      "name": "ownerOf",
      "outputs": [
        {
          "internalType": "address",
          "name": "",
          "type": "address"
        }
      ],
      "stateMutability": "view",
      "type": "function"
    },
    {
      "inputs": [],
      "name": "renounceOwnership",
      "outputs": [],
      "stateMutability": "nonpayable",
      "type": "function"
    },
    {
      "inputs": [
        {
          "internalType": "address",
          "name": "to",
          "type": "address"
        },
        {
          "internalType": "string",
          "name": "uri",
          "type": "string"
        }
      ],
      "name": "safeMint",
      "outputs": [],
      "stateMutability": "nonpayable",
      "type": "function"
    },
    {
      "inputs": [
        {
          "internalType": "address",
          "name": "from",
          "type": "address"
        },
        {
          "internalType": "address",
          "name": "to",
          "type": "address"
        },
        {
          "internalType": "uint256",
          "name": "tokenId",
          "type": "uint256"
        }
      ],
      "name": "safeTransferFrom",
      "outputs": [],
      "stateMutability": "nonpayable",
      "type": "function"
    },
    {
      "inputs": [
        {
          "internalType": "address",
          "name": "from",
          "type": "address"
        },
        {
          "internalType": "address",
          "name": "to",
          "type": "address"
        },
        {
          "internalType": "uint256",
          "name": "tokenId",
          "type": "uint256"
        },
        {
          "internalType": "bytes",
          "name": "data",
          "type": "bytes"
        }
      ],
      "name": "safeTransferFrom",
      "outputs": [],
      "stateMutability": "nonpayable",
      "type": "function"
    },
    {
      "inputs": [
        {
          "internalType": "address",
          "name": "operator",
          "type": "address"
        },
        {
          "internalType": "bool",
          "name": "approved",
          "type": "bool"
        }
      ],
      "name": "setApprovalForAll",
      "outputs": [],
      "stateMutability": "nonpayable",
      "type": "function"
    },
    {
      "inputs": [
        {
          "internalType": "bytes4",
          "name": "interfaceId",
          "type": "bytes4"
        }
      ],
      "name": "supportsInterface",
      "outputs": [
        {
          "internalType": "bool",
          "name": "",
          "type": "bool"
        }
      ],
      "stateMutability": "view",
      "type": "function"
    },
    {
      "inputs": [],
      "name": "symbol",
      "outputs": [
        {
          "internalType": "string",
          "name": "",
          "type": "string"
        }
      ],
      "stateMutability": "view",
      "type": "function"
    },
    {
      "inputs": [
        {
          "internalType": "uint256",
          "name": "index",
          "type": "uint256"
        }
      ],
      "name": "tokenByIndex",
      "outputs": [
        {
          "internalType": "uint256",
          "name": "",
          "type": "uint256"
        }
      ],
      "stateMutability": "view",
      "type": "function"
    },
    {
      "inputs": [
        {
          "internalType": "address",
          "name": "owner",
          "type": "address"
        },
        {
          "internalType": "uint256",
          "name": "index",
          "type": "uint256"
        }
      ],
      "name": "tokenOfOwnerByIndex",
      "outputs": [
        {
          "internalType": "uint256",
          "name": "",
          "type": "uint256"
        }
      ],
      "stateMutability": "view",
      "type": "function"
    },
    {
      "inputs": [
        {
          "internalType": "uint256",
          "name": "tokenId",
          "type": "uint256"
        }
      ],
      "name": "tokenURI",
      "outputs": [
        {
          "internalType": "string",
          "name": "",
          "type": "string"
        }
      ],
      "stateMutability": "view",
      "type": "function"
    },
    {
      "inputs": [],
      "name": "totalSupply",
      "outputs": [
        {
          "internalType": "uint256",
          "name": "",
          "type": "uint256"
        }
      ],
      "stateMutability": "view",
      "type": "function"
    },
    {
      "inputs": [
        {
          "internalType": "address",
          "name": "from",
          "type": "address"
        },
        {
          "internalType": "address",
          "name": "to",
          "type": "address"
        },
        {
          "internalType": "uint256",
          "name": "tokenId",
          "type": "uint256"
        }
      ],
      "name": "transferFrom",
      "outputs": [],
      "stateMutability": "nonpayable",
      "type": "function"
    },
    {
      "inputs": [
        {
          "internalType": "address",
          "name": "newOwner",
          "type": "address"
        }
      ],
      "name": "transferOwnership",
      "outputs": [],
      "stateMutability": "nonpayable",
      "type": "function"
    },
    {
      "inputs": [
        {
          "internalType": "uint256",
          "name": "tokenId",
          "type": "uint256"
        },
        {
          "internalType": "uint256",
          "name": "newPriceInCommunityTokens",
          "type": "uint256"
        }
      ],
      "name": "updateSalePrice",
      "outputs": [],
      "stateMutability": "nonpayable",
      "type": "function"
    }
  ],
  "bytecode": "0x60806040523480156200001157600080fd5b5060405162005035380380620050358339818101604052810190620000379190620002d4565b6040518060400160405280601281526020017f447261676f6e42616c6c53757065724e465400000000000000000000000000008152506040518060400160405280600681526020017f4442534e465400000000000000000000000000000000000000000000000000008152508160009080519060200190620000bb9291906200020d565b508060019080519060200190620000d49291906200020d565b505050620000f7620000eb6200013f60201b60201c565b6200014760201b60201c565b80600d60006101000a81548173ffffffffffffffffffffffffffffffffffffffff021916908373ffffffffffffffffffffffffffffffffffffffff16021790555050620003c7565b600033905090565b6000600b60009054906101000a900473ffffffffffffffffffffffffffffffffffffffff16905081600b60006101000a81548173ffffffffffffffffffffffffffffffffffffffff021916908373ffffffffffffffffffffffffffffffffffffffff1602179055508173ffffffffffffffffffffffffffffffffffffffff168173ffffffffffffffffffffffffffffffffffffffff167f8be0079c531659141344cd1fd0a4f28419497f9722a3daafe3b4186f6b6457e060405160405180910390a35050565b8280546200021b9062000348565b90600052602060002090601f0160209004810192826200023f57600085556200028b565b82601f106200025a57805160ff19168380011785556200028b565b828001600101855582156200028b579182015b828111156200028a5782518255916020019190600101906200026d565b5b5090506200029a91906200029e565b5090565b5b80821115620002b95760008160009055506001016200029f565b5090565b600081519050620002ce81620003ad565b92915050565b600060208284031215620002e757600080fd5b6000620002f784828501620002bd565b91505092915050565b60006200030d8262000328565b9050919050565b6000620003218262000300565b9050919050565b600073ffffffffffffffffffffffffffffffffffffffff82169050919050565b600060028204905060018216806200036157607f821691505b602082108114156200037857620003776200037e565b5b50919050565b7f4e487b7100000000000000000000000000000000000000000000000000000000600052602260045260246000fd5b620003b88162000314565b8114620003c457600080fd5b50565b614c5e80620003d76000396000f3fe608060405234801561001057600080fd5b50600436106101cf5760003560e01c806370a0823111610104578063b88d4fde116100a2578063de58048c11610071578063de58048c1461052a578063e985e9c514610548578063f0dc63d014610578578063f2fde38b146105a8576101cf565b8063b88d4fde14610492578063c87b56dd146104ae578063c9e40caf146104de578063d204c45e1461050e576101cf565b806395d89b41116100de57806395d89b411461042057806396f76f6f1461043e578063a22cb4651461045a578063b2733b3914610476576101cf565b806370a08231146103c8578063715018a6146103f85780638da5cb5b14610402576101cf565b80632f745c59116101715780634f6ccce71161014b5780634f6ccce71461032e57806351ed82881461035e578063561892361461037a5780636352211e14610398576101cf565b80632f745c59146102c657806342842e0e146102f65780634896672e14610312576101cf565b8063095ea7b3116101ad578063095ea7b31461025257806318160ddd1461026e57806323b872dd1461028c57806329aa1617146102a8576101cf565b806301ffc9a7146101d457806306fdde0314610204578063081812fc14610222575b600080fd5b6101ee60048036038101906101e99190613741565b6105c4565b6040516101fb9190613eae565b60405180910390f35b61020c6105d6565b6040516102199190613ee4565b60405180910390f35b61023c600480360381019061023791906137fa565b610668565b6040516102499190613dee565b60405180910390f35b61026c600480360381019061026791906136dc565b6106ae565b005b6102766107c6565b6040516102839190614241565b60405180910390f35b6102a660048036038101906102a19190613582565b6107d3565b005b6102b0610833565b6040516102bd9190613ec9565b60405180910390f35b6102e060048036038101906102db91906136dc565b610859565b6040516102ed9190614241565b60405180910390f35b610310600480360381019061030b9190613582565b6108fe565b005b61032c6004803603810190610327919061384c565b61091e565b005b610348600480360381019061034391906137fa565b610a44565b6040516103559190614241565b60405180910390f35b610378600480360381019061037391906137fa565b610adb565b005b610382610e7f565b60405161038f9190614241565b60405180910390f35b6103b260048036038101906103ad91906137fa565b610e90565b6040516103bf9190613dee565b60405180910390f35b6103e260048036038101906103dd919061351d565b610f17565b6040516103ef9190614241565b60405180910390f35b610400610fcf565b005b61040a610fe3565b6040516104179190613dee565b60405180910390f35b61042861100d565b6040516104359190613ee4565b60405180910390f35b61045860048036038101906104539190613793565b61109f565b005b610474600480360381019061046f919061364c565b6111fa565b005b610490600480360381019061048b919061384c565b611210565b005b6104ac60048036038101906104a791906135d1565b611408565b005b6104c860048036038101906104c391906137fa565b61146a565b6040516104d59190613ee4565b60405180910390f35b6104f860048036038101906104f391906137fa565b61147c565b6040516105059190614226565b60405180910390f35b61052860048036038101906105239190613688565b61152e565b005b610532611567565b60405161053f9190613e8c565b60405180910390f35b610562600480360381019061055d9190613546565b611700565b60405161056f9190613eae565b60405180910390f35b610592600480360381019061058d91906137fa565b611794565b60405161059f9190614226565b60405180910390f35b6105c260048036038101906105bd919061351d565b6118a9565b005b60006105cf8261192d565b9050919050565b6060600080546105e59061446d565b80601f01602080910402602001604051908101604052809291908181526020018280546106119061446d565b801561065e5780601f106106335761010080835404028352916020019161065e565b820191906000526020600020905b81548152906001019060200180831161064157829003601f168201915b5050505050905090565b6000610673826119a7565b6004600083815260200190815260200160002060009054906101000a900473ffffffffffffffffffffffffffffffffffffffff169050919050565b60006106b982610e90565b90508073ffffffffffffffffffffffffffffffffffffffff168373ffffffffffffffffffffffffffffffffffffffff16141561072a576040517f08c379a000000000000000000000000000000000000000000000000000000000815260040161072190614186565b60405180910390fd5b8073ffffffffffffffffffffffffffffffffffffffff166107496119f2565b73ffffffffffffffffffffffffffffffffffffffff1614806107785750610777816107726119f2565b611700565b5b6107b7576040517f08c379a00000000000000000000000000000000000000000000000000000000081526004016107ae906141a6565b60405180910390fd5b6107c183836119fa565b505050565b6000600980549050905090565b6107e46107de6119f2565b82611ab3565b610823576040517f08c379a000000000000000000000000000000000000000000000000000000000815260040161081a90613f06565b60405180910390fd5b61082e838383611b48565b505050565b600d60009054906101000a900473ffffffffffffffffffffffffffffffffffffffff1681565b600061086483610f17565b82106108a5576040517f08c379a000000000000000000000000000000000000000000000000000000000815260040161089c90613f26565b60405180910390fd5b600760008473ffffffffffffffffffffffffffffffffffffffff1673ffffffffffffffffffffffffffffffffffffffff168152602001908152602001600020600083815260200190815260200160002054905092915050565b61091983838360405180602001604052806000815250611408565b505050565b600e600083815260200190815260200160002060030160009054906101000a900460ff16610981576040517f08c379a000000000000000000000000000000000000000000000000000000000815260040161097890614126565b60405180910390fd5b3373ffffffffffffffffffffffffffffffffffffffff16600e600084815260200190815260200160002060010160009054906101000a900473ffffffffffffffffffffffffffffffffffffffff1673ffffffffffffffffffffffffffffffffffffffff1614610a25576040517f08c379a0000000000000000000000000000000000000000000000000000000008152600401610a1c906140c6565b60405180910390fd5b80600e6000848152602001908152602001600020600201819055505050565b6000610a4e6107c6565b8210610a8f576040517f08c379a0000000000000000000000000000000000000000000000000000000008152600401610a86906141c6565b60405180910390fd5b60098281548110610ac9577f4e487b7100000000000000000000000000000000000000000000000000000000600052603260045260246000fd5b90600052602060002001549050919050565b6000600e600083815260200190815260200160002090508060030160009054906101000a900460ff16610b43576040517f08c379a0000000000000000000000000000000000000000000000000000000008152600401610b3a90614166565b60405180910390fd5b8060020154600d60009054906101000a900473ffffffffffffffffffffffffffffffffffffffff1673ffffffffffffffffffffffffffffffffffffffff166370a08231336040518263ffffffff1660e01b8152600401610ba39190613dee565b60206040518083038186803b158015610bbb57600080fd5b505afa158015610bcf573d6000803e3d6000fd5b505050506040513d601f19601f82011682018060405250810190610bf39190613823565b1015610c34576040517f08c379a0000000000000000000000000000000000000000000000000000000008152600401610c2b90614046565b60405180910390fd5b3373ffffffffffffffffffffffffffffffffffffffff168160010160009054906101000a900473ffffffffffffffffffffffffffffffffffffffff1673ffffffffffffffffffffffffffffffffffffffff161415610cc7576040517f08c379a0000000000000000000000000000000000000000000000000000000008152600401610cbe90614206565b60405180910390fd5b600d60009054906101000a900473ffffffffffffffffffffffffffffffffffffffff1673ffffffffffffffffffffffffffffffffffffffff166323b872dd338360010160009054906101000a900473ffffffffffffffffffffffffffffffffffffffff1684600201546040518463ffffffff1660e01b8152600401610d4e93929190613e09565b602060405180830381600087803b158015610d6857600080fd5b505af1158015610d7c573d6000803e3d6000fd5b505050506040513d601f19601f82011682018060405250810190610da09190613718565b5060008160030160006101000a81548160ff021916908315150217905550610ded8160010160009054906101000a900473ffffffffffffffffffffffffffffffffffffffff163384611b48565b8060010160009054906101000a900473ffffffffffffffffffffffffffffffffffffffff1673ffffffffffffffffffffffffffffffffffffffff163373ffffffffffffffffffffffffffffffffffffffff16837fef1fb2bd31f5ed737e6054243d9b5eacd3af967f35af45e8fb844ca6dbbe98f98460020154604051610e739190614241565b60405180910390a45050565b6000610e8b600c611e42565b905090565b600080610e9c83611e50565b9050600073ffffffffffffffffffffffffffffffffffffffff168173ffffffffffffffffffffffffffffffffffffffff161415610f0e576040517f08c379a0000000000000000000000000000000000000000000000000000000008152600401610f0590614146565b60405180910390fd5b80915050919050565b60008073ffffffffffffffffffffffffffffffffffffffff168273ffffffffffffffffffffffffffffffffffffffff161415610f88576040517f08c379a0000000000000000000000000000000000000000000000000000000008152600401610f7f90614026565b60405180910390fd5b600360008373ffffffffffffffffffffffffffffffffffffffff1673ffffffffffffffffffffffffffffffffffffffff168152602001908152602001600020549050919050565b610fd7611e8d565b610fe16000611f0b565b565b6000600b60009054906101000a900473ffffffffffffffffffffffffffffffffffffffff16905090565b60606001805461101c9061446d565b80601f01602080910402602001604051908101604052809291908181526020018280546110489061446d565b80156110955780601f1061106a57610100808354040283529160200191611095565b820191906000526020600020905b81548152906001019060200180831161107857829003601f168201915b5050505050905090565b6110a7611e8d565b60006110b3600c611e42565b90506110bf600c611fd1565b6110c93382611fe7565b6110d38185612005565b81156111f45760405180608001604052808281526020013373ffffffffffffffffffffffffffffffffffffffff16815260200184815260200160011515815250600e60008381526020019081526020016000206000820151816000015560208201518160010160006101000a81548173ffffffffffffffffffffffffffffffffffffffff021916908373ffffffffffffffffffffffffffffffffffffffff1602179055506040820151816002015560608201518160030160006101000a81548160ff0219169083151502179055509050503373ffffffffffffffffffffffffffffffffffffffff16817f9ac3db0a090d3e531273a48a8ad054f0d81cab16aba74015d3a8980bf3e079f6856040516111eb9190614241565b60405180910390a35b50505050565b61120c6112056119f2565b83836120b0565b5050565b3373ffffffffffffffffffffffffffffffffffffffff1661123083610e90565b73ffffffffffffffffffffffffffffffffffffffff1614611286576040517f08c379a000000000000000000000000000000000000000000000000000000000815260040161127d90613fc6565b60405180910390fd5b600e600083815260200190815260200160002060030160009054906101000a900460ff16156112ea576040517f08c379a00000000000000000000000000000000000000000000000000000000081526004016112e190614066565b60405180910390fd5b60405180608001604052808381526020013373ffffffffffffffffffffffffffffffffffffffff16815260200182815260200160011515815250600e60008481526020019081526020016000206000820151816000015560208201518160010160006101000a81548173ffffffffffffffffffffffffffffffffffffffff021916908373ffffffffffffffffffffffffffffffffffffffff1602179055506040820151816002015560608201518160030160006101000a81548160ff0219169083151502179055509050503373ffffffffffffffffffffffffffffffffffffffff16827f9ac3db0a090d3e531273a48a8ad054f0d81cab16aba74015d3a8980bf3e079f6836040516113fc9190614241565b60405180910390a35050565b6114196114136119f2565b83611ab3565b611458576040517f08c379a000000000000000000000000000000000000000000000000000000000815260040161144f90613f06565b60405180910390fd5b6114648484848461221d565b50505050565b606061147582612279565b9050919050565b6114846132d7565b600e6000838152602001908152602001600020604051806080016040529081600082015481526020016001820160009054906101000a900473ffffffffffffffffffffffffffffffffffffffff1673ffffffffffffffffffffffffffffffffffffffff1673ffffffffffffffffffffffffffffffffffffffff168152602001600282015481526020016003820160009054906101000a900460ff1615151515815250509050919050565b611536611e8d565b6000611542600c611e42565b905061154e600c611fd1565b6115588382611fe7565b6115628183612005565b505050565b60606000611575600c611e42565b90506000805b828110156115ce57600e600082815260200190815260200160002060030160009054906101000a900460ff16156115bb5781806115b7906144d0565b9250505b80806115c6906144d0565b91505061157b565b5060008167ffffffffffffffff811115611611577f4e487b7100000000000000000000000000000000000000000000000000000000600052604160045260246000fd5b60405190808252806020026020018201604052801561163f5781602001602082028036833780820191505090505b5090506000805b848110156116f557600e600082815260200190815260200160002060030160009054906101000a900460ff16156116e257600e6000828152602001908152602001600020600001548383815181106116c7577f4e487b7100000000000000000000000000000000000000000000000000000000600052603260045260246000fd5b60200260200101818152505081806116de906144d0565b9250505b80806116ed906144d0565b915050611646565b508194505050505090565b6000600560008473ffffffffffffffffffffffffffffffffffffffff1673ffffffffffffffffffffffffffffffffffffffff16815260200190815260200160002060008373ffffffffffffffffffffffffffffffffffffffff1673ffffffffffffffffffffffffffffffffffffffff16815260200190815260200160002060009054906101000a900460ff16905092915050565b61179c6132d7565b600e600083815260200190815260200160002060030160009054906101000a900460ff166117ff576040517f08c379a00000000000000000000000000000000000000000000000000000000081526004016117f6906140a6565b60405180910390fd5b600e6000838152602001908152602001600020604051806080016040529081600082015481526020016001820160009054906101000a900473ffffffffffffffffffffffffffffffffffffffff1673ffffffffffffffffffffffffffffffffffffffff1673ffffffffffffffffffffffffffffffffffffffff168152602001600282015481526020016003820160009054906101000a900460ff1615151515815250509050919050565b6118b1611e8d565b600073ffffffffffffffffffffffffffffffffffffffff168173ffffffffffffffffffffffffffffffffffffffff161415611921576040517f08c379a000000000000000000000000000000000000000000000000000000000815260040161191890613f66565b60405180910390fd5b61192a81611f0b565b50565b60007f780e9d63000000000000000000000000000000000000000000000000000000007bffffffffffffffffffffffffffffffffffffffffffffffffffffffff1916827bffffffffffffffffffffffffffffffffffffffffffffffffffffffff191614806119a0575061199f8261238c565b5b9050919050565b6119b0816123ed565b6119ef576040517f08c379a00000000000000000000000000000000000000000000000000000000081526004016119e690614146565b60405180910390fd5b50565b600033905090565b816004600083815260200190815260200160002060006101000a81548173ffffffffffffffffffffffffffffffffffffffff021916908373ffffffffffffffffffffffffffffffffffffffff160217905550808273ffffffffffffffffffffffffffffffffffffffff16611a6d83610e90565b73ffffffffffffffffffffffffffffffffffffffff167f8c5be1e5ebec7d5bd14f71427d1e84f3dd0314c0f7b2291e5b200ac8c7c3b92560405160405180910390a45050565b600080611abf83610e90565b90508073ffffffffffffffffffffffffffffffffffffffff168473ffffffffffffffffffffffffffffffffffffffff161480611b015750611b008185611700565b5b80611b3f57508373ffffffffffffffffffffffffffffffffffffffff16611b2784610668565b73ffffffffffffffffffffffffffffffffffffffff16145b91505092915050565b8273ffffffffffffffffffffffffffffffffffffffff16611b6882610e90565b73ffffffffffffffffffffffffffffffffffffffff1614611bbe576040517f08c379a0000000000000000000000000000000000000000000000000000000008152600401611bb590613f86565b60405180910390fd5b600073ffffffffffffffffffffffffffffffffffffffff168273ffffffffffffffffffffffffffffffffffffffff161415611c2e576040517f08c379a0000000000000000000000000000000000000000000000000000000008152600401611c2590613fe6565b60405180910390fd5b611c3b838383600161242e565b8273ffffffffffffffffffffffffffffffffffffffff16611c5b82610e90565b73ffffffffffffffffffffffffffffffffffffffff1614611cb1576040517f08c379a0000000000000000000000000000000000000000000000000000000008152600401611ca890613f86565b60405180910390fd5b6004600082815260200190815260200160002060006101000a81549073ffffffffffffffffffffffffffffffffffffffff02191690556001600360008573ffffffffffffffffffffffffffffffffffffffff1673ffffffffffffffffffffffffffffffffffffffff168152602001908152602001600020600082825403925050819055506001600360008473ffffffffffffffffffffffffffffffffffffffff1673ffffffffffffffffffffffffffffffffffffffff16815260200190815260200160002060008282540192505081905550816002600083815260200190815260200160002060006101000a81548173ffffffffffffffffffffffffffffffffffffffff021916908373ffffffffffffffffffffffffffffffffffffffff160217905550808273ffffffffffffffffffffffffffffffffffffffff168473ffffffffffffffffffffffffffffffffffffffff167fddf252ad1be2c89b69c2b068fc378daa952ba7f163c4a11628f55a4df523b3ef60405160405180910390a4611e3d838383600161249a565b505050565b600081600001549050919050565b60006002600083815260200190815260200160002060009054906101000a900473ffffffffffffffffffffffffffffffffffffffff169050919050565b611e956119f2565b73ffffffffffffffffffffffffffffffffffffffff16611eb3610fe3565b73ffffffffffffffffffffffffffffffffffffffff1614611f09576040517f08c379a0000000000000000000000000000000000000000000000000000000008152600401611f0090614106565b60405180910390fd5b565b6000600b60009054906101000a900473ffffffffffffffffffffffffffffffffffffffff16905081600b60006101000a81548173ffffffffffffffffffffffffffffffffffffffff021916908373ffffffffffffffffffffffffffffffffffffffff1602179055508173ffffffffffffffffffffffffffffffffffffffff168173ffffffffffffffffffffffffffffffffffffffff167f8be0079c531659141344cd1fd0a4f28419497f9722a3daafe3b4186f6b6457e060405160405180910390a35050565b6001816000016000828254019250508190555050565b6120018282604051806020016040528060008152506124a0565b5050565b61200e826123ed565b61204d576040517f08c379a000000000000000000000000000000000000000000000000000000000815260040161204490614086565b60405180910390fd5b80600660008481526020019081526020016000209080519060200190612074929190613317565b507ff8e1a15aba9398e019f0b49df1a4fde98ee17ae345cb5f6b5e2c27f5033e8ce7826040516120a49190614241565b60405180910390a15050565b8173ffffffffffffffffffffffffffffffffffffffff168373ffffffffffffffffffffffffffffffffffffffff16141561211f576040517f08c379a000000000000000000000000000000000000000000000000000000000815260040161211690614006565b60405180910390fd5b80600560008573ffffffffffffffffffffffffffffffffffffffff1673ffffffffffffffffffffffffffffffffffffffff16815260200190815260200160002060008473ffffffffffffffffffffffffffffffffffffffff1673ffffffffffffffffffffffffffffffffffffffff16815260200190815260200160002060006101000a81548160ff0219169083151502179055508173ffffffffffffffffffffffffffffffffffffffff168373ffffffffffffffffffffffffffffffffffffffff167f17307eab39ab6107e8899845ad3d59bd9653f200f220920489ca2b5937696c31836040516122109190613eae565b60405180910390a3505050565b612228848484611b48565b612234848484846124fb565b612273576040517f08c379a000000000000000000000000000000000000000000000000000000000815260040161226a90613f46565b60405180910390fd5b50505050565b6060612284826119a7565b60006006600084815260200190815260200160002080546122a49061446d565b80601f01602080910402602001604051908101604052809291908181526020018280546122d09061446d565b801561231d5780601f106122f25761010080835404028352916020019161231d565b820191906000526020600020905b81548152906001019060200180831161230057829003601f168201915b50505050509050600061232e612692565b9050600081511415612344578192505050612387565b600082511115612379578082604051602001612361929190613dca565b60405160208183030381529060405292505050612387565b612382846126a9565b925050505b919050565b6000634906490660e01b7bffffffffffffffffffffffffffffffffffffffffffffffffffffffff1916827bffffffffffffffffffffffffffffffffffffffffffffffffffffffff191614806123e657506123e582612711565b5b9050919050565b60008073ffffffffffffffffffffffffffffffffffffffff1661240f83611e50565b73ffffffffffffffffffffffffffffffffffffffff1614159050919050565b61243b84848460016127f3565b600e600083815260200190815260200160002060030160009054906101000a900460ff1615612494576000600e600084815260200190815260200160002060030160006101000a81548160ff0219169083151502179055505b50505050565b50505050565b6124aa8383612953565b6124b760008484846124fb565b6124f6576040517f08c379a00000000000000000000000000000000000000000000000000000000081526004016124ed90613f46565b60405180910390fd5b505050565b600061251c8473ffffffffffffffffffffffffffffffffffffffff16612b71565b15612685578373ffffffffffffffffffffffffffffffffffffffff1663150b7a026125456119f2565b8786866040518563ffffffff1660e01b81526004016125679493929190613e40565b602060405180830381600087803b15801561258157600080fd5b505af19250505080156125b257506040513d601f19601f820116820180604052508101906125af919061376a565b60015b612635573d80600081146125e2576040519150601f19603f3d011682016040523d82523d6000602084013e6125e7565b606091505b5060008151141561262d576040517f08c379a000000000000000000000000000000000000000000000000000000000815260040161262490613f46565b60405180910390fd5b805181602001fd5b63150b7a0260e01b7bffffffffffffffffffffffffffffffffffffffffffffffffffffffff1916817bffffffffffffffffffffffffffffffffffffffffffffffffffffffff19161491505061268a565b600190505b949350505050565b606060405180602001604052806000815250905090565b60606126b4826119a7565b60006126be612692565b905060008151116126de5760405180602001604052806000815250612709565b806126e884612b94565b6040516020016126f9929190613dca565b6040516020818303038152906040525b915050919050565b60007f80ac58cd000000000000000000000000000000000000000000000000000000007bffffffffffffffffffffffffffffffffffffffffffffffffffffffff1916827bffffffffffffffffffffffffffffffffffffffffffffffffffffffff191614806127dc57507f5b5e139f000000000000000000000000000000000000000000000000000000007bffffffffffffffffffffffffffffffffffffffffffffffffffffffff1916827bffffffffffffffffffffffffffffffffffffffffffffffffffffffff1916145b806127ec57506127eb82612cb8565b5b9050919050565b6127ff84848484612d22565b6001811115612843576040517f08c379a000000000000000000000000000000000000000000000000000000000815260040161283a906141e6565b60405180910390fd5b6000829050600073ffffffffffffffffffffffffffffffffffffffff168573ffffffffffffffffffffffffffffffffffffffff16141561288b5761288681612d28565b6128ca565b8373ffffffffffffffffffffffffffffffffffffffff168573ffffffffffffffffffffffffffffffffffffffff16146128c9576128c88582612d71565b5b5b600073ffffffffffffffffffffffffffffffffffffffff168473ffffffffffffffffffffffffffffffffffffffff16141561290d5761290881612ede565b61294c565b8473ffffffffffffffffffffffffffffffffffffffff168473ffffffffffffffffffffffffffffffffffffffff161461294b5761294a8482613021565b5b5b5050505050565b600073ffffffffffffffffffffffffffffffffffffffff168273ffffffffffffffffffffffffffffffffffffffff1614156129c3576040517f08c379a00000000000000000000000000000000000000000000000000000000081526004016129ba906140e6565b60405180910390fd5b6129cc816123ed565b15612a0c576040517f08c379a0000000000000000000000000000000000000000000000000000000008152600401612a0390613fa6565b60405180910390fd5b612a1a60008383600161242e565b612a23816123ed565b15612a63576040517f08c379a0000000000000000000000000000000000000000000000000000000008152600401612a5a90613fa6565b60405180910390fd5b6001600360008473ffffffffffffffffffffffffffffffffffffffff1673ffffffffffffffffffffffffffffffffffffffff16815260200190815260200160002060008282540192505081905550816002600083815260200190815260200160002060006101000a81548173ffffffffffffffffffffffffffffffffffffffff021916908373ffffffffffffffffffffffffffffffffffffffff160217905550808273ffffffffffffffffffffffffffffffffffffffff16600073ffffffffffffffffffffffffffffffffffffffff167fddf252ad1be2c89b69c2b068fc378daa952ba7f163c4a11628f55a4df523b3ef60405160405180910390a4612b6d60008383600161249a565b5050565b6000808273ffffffffffffffffffffffffffffffffffffffff163b119050919050565b606060006001612ba3846130a0565b01905060008167ffffffffffffffff811115612be8577f4e487b7100000000000000000000000000000000000000000000000000000000600052604160045260246000fd5b6040519080825280601f01601f191660200182016040528015612c1a5781602001600182028036833780820191505090505b509050600082602001820190505b600115612cad578080600190039150507f3031323334353637383961626364656600000000000000000000000000000000600a86061a8153600a8581612c97577f4e487b7100000000000000000000000000000000000000000000000000000000600052601260045260246000fd5b0494506000851415612ca857612cad565b612c28565b819350505050919050565b60007f01ffc9a7000000000000000000000000000000000000000000000000000000007bffffffffffffffffffffffffffffffffffffffffffffffffffffffff1916827bffffffffffffffffffffffffffffffffffffffffffffffffffffffff1916149050919050565b50505050565b600980549050600a600083815260200190815260200160002081905550600981908060018154018082558091505060019003906000526020600020016000909190919091505550565b60006001612d7e84610f17565b612d88919061435f565b9050600060086000848152602001908152602001600020549050818114612e6d576000600760008673ffffffffffffffffffffffffffffffffffffffff1673ffffffffffffffffffffffffffffffffffffffff168152602001908152602001600020600084815260200190815260200160002054905080600760008773ffffffffffffffffffffffffffffffffffffffff1673ffffffffffffffffffffffffffffffffffffffff168152602001908152602001600020600084815260200190815260200160002081905550816008600083815260200190815260200160002081905550505b6008600084815260200190815260200160002060009055600760008573ffffffffffffffffffffffffffffffffffffffff1673ffffffffffffffffffffffffffffffffffffffff16815260200190815260200160002060008381526020019081526020016000206000905550505050565b60006001600980549050612ef2919061435f565b90506000600a6000848152602001908152602001600020549050600060098381548110612f48577f4e487b7100000000000000000000000000000000000000000000000000000000600052603260045260246000fd5b906000526020600020015490508060098381548110612f90577f4e487b7100000000000000000000000000000000000000000000000000000000600052603260045260246000fd5b906000526020600020018190555081600a600083815260200190815260200160002081905550600a6000858152602001908152602001600020600090556009805480613005577f4e487b7100000000000000000000000000000000000000000000000000000000600052603160045260246000fd5b6001900381819060005260206000200160009055905550505050565b600061302c83610f17565b905081600760008573ffffffffffffffffffffffffffffffffffffffff1673ffffffffffffffffffffffffffffffffffffffff168152602001908152602001600020600083815260200190815260200160002081905550806008600084815260200190815260200160002081905550505050565b600080600090507a184f03e93ff9f4daa797ed6e38ed64bf6a1f0100000000000000008310613124577a184f03e93ff9f4daa797ed6e38ed64bf6a1f010000000000000000838161311a577f4e487b7100000000000000000000000000000000000000000000000000000000600052601260045260246000fd5b0492506040810190505b6d04ee2d6d415b85acef81000000008310613187576d04ee2d6d415b85acef8100000000838161317d577f4e487b7100000000000000000000000000000000000000000000000000000000600052601260045260246000fd5b0492506020810190505b662386f26fc1000083106131dc57662386f26fc1000083816131d2577f4e487b7100000000000000000000000000000000000000000000000000000000600052601260045260246000fd5b0492506010810190505b6305f5e100831061322b576305f5e1008381613221577f4e487b7100000000000000000000000000000000000000000000000000000000600052601260045260246000fd5b0492506008810190505b612710831061327657612710838161326c577f4e487b7100000000000000000000000000000000000000000000000000000000600052601260045260246000fd5b0492506004810190505b606483106132bf57606483816132b5577f4e487b7100000000000000000000000000000000000000000000000000000000600052601260045260246000fd5b0492506002810190505b600a83106132ce576001810190505b80915050919050565b604051806080016040528060008152602001600073ffffffffffffffffffffffffffffffffffffffff168152602001600081526020016000151581525090565b8280546133239061446d565b90600052602060002090601f016020900481019282613345576000855561338c565b82601f1061335e57805160ff191683800117855561338c565b8280016001018555821561338c579182015b8281111561338b578251825591602001919060010190613370565b5b509050613399919061339d565b5090565b5b808211156133b657600081600090555060010161339e565b5090565b60006133cd6133c884614281565b61425c565b9050828152602081018484840111156133e557600080fd5b6133f084828561442b565b509392505050565b600061340b613406846142b2565b61425c565b90508281526020810184848401111561342357600080fd5b61342e84828561442b565b509392505050565b60008135905061344581614bcc565b92915050565b60008135905061345a81614be3565b92915050565b60008151905061346f81614be3565b92915050565b60008135905061348481614bfa565b92915050565b60008151905061349981614bfa565b92915050565b600082601f8301126134b057600080fd5b81356134c08482602086016133ba565b91505092915050565b600082601f8301126134da57600080fd5b81356134ea8482602086016133f8565b91505092915050565b60008135905061350281614c11565b92915050565b60008151905061351781614c11565b92915050565b60006020828403121561352f57600080fd5b600061353d84828501613436565b91505092915050565b6000806040838503121561355957600080fd5b600061356785828601613436565b925050602061357885828601613436565b9150509250929050565b60008060006060848603121561359757600080fd5b60006135a586828701613436565b93505060206135b686828701613436565b92505060406135c7868287016134f3565b9150509250925092565b600080600080608085870312156135e757600080fd5b60006135f587828801613436565b945050602061360687828801613436565b9350506040613617878288016134f3565b925050606085013567ffffffffffffffff81111561363457600080fd5b6136408782880161349f565b91505092959194509250565b6000806040838503121561365f57600080fd5b600061366d85828601613436565b925050602061367e8582860161344b565b9150509250929050565b6000806040838503121561369b57600080fd5b60006136a985828601613436565b925050602083013567ffffffffffffffff8111156136c657600080fd5b6136d2858286016134c9565b9150509250929050565b600080604083850312156136ef57600080fd5b60006136fd85828601613436565b925050602061370e858286016134f3565b9150509250929050565b60006020828403121561372a57600080fd5b600061373884828501613460565b91505092915050565b60006020828403121561375357600080fd5b600061376184828501613475565b91505092915050565b60006020828403121561377c57600080fd5b600061378a8482850161348a565b91505092915050565b6000806000606084860312156137a857600080fd5b600084013567ffffffffffffffff8111156137c257600080fd5b6137ce868287016134c9565b93505060206137df868287016134f3565b92505060406137f08682870161344b565b9150509250925092565b60006020828403121561380c57600080fd5b600061381a848285016134f3565b91505092915050565b60006020828403121561383557600080fd5b600061384384828501613508565b91505092915050565b6000806040838503121561385f57600080fd5b600061386d858286016134f3565b925050602061387e858286016134f3565b9150509250929050565b60006138948383613dac565b60208301905092915050565b6138a981614393565b82525050565b6138b881614393565b82525050565b60006138c9826142f3565b6138d38185614321565b93506138de836142e3565b8060005b8381101561390f5781516138f68882613888565b975061390183614314565b9250506001810190506138e2565b5085935050505092915050565b613925816143a5565b82525050565b613934816143a5565b82525050565b6000613945826142fe565b61394f8185614332565b935061395f81856020860161443a565b613968816145a6565b840191505092915050565b61397c81614407565b82525050565b600061398d82614309565b6139978185614343565b93506139a781856020860161443a565b6139b0816145a6565b840191505092915050565b60006139c682614309565b6139d08185614354565b93506139e081856020860161443a565b80840191505092915050565b60006139f9602d83614343565b9150613a04826145b7565b604082019050919050565b6000613a1c602b83614343565b9150613a2782614606565b604082019050919050565b6000613a3f603283614343565b9150613a4a82614655565b604082019050919050565b6000613a62602683614343565b9150613a6d826146a4565b604082019050919050565b6000613a85602583614343565b9150613a90826146f3565b604082019050919050565b6000613aa8601c83614343565b9150613ab382614742565b602082019050919050565b6000613acb602383614343565b9150613ad68261476b565b604082019050919050565b6000613aee602483614343565b9150613af9826147ba565b604082019050919050565b6000613b11601983614343565b9150613b1c82614809565b602082019050919050565b6000613b34602983614343565b9150613b3f82614832565b604082019050919050565b6000613b57601d83614343565b9150613b6282614881565b602082019050919050565b6000613b7a601b83614343565b9150613b85826148aa565b602082019050919050565b6000613b9d602e83614343565b9150613ba8826148d3565b604082019050919050565b6000613bc0601d83614343565b9150613bcb82614922565b602082019050919050565b6000613be3602483614343565b9150613bee8261494b565b604082019050919050565b6000613c06602083614343565b9150613c118261499a565b602082019050919050565b6000613c29602083614343565b9150613c34826149c3565b602082019050919050565b6000613c4c601383614343565b9150613c57826149ec565b602082019050919050565b6000613c6f601883614343565b9150613c7a82614a15565b602082019050919050565b6000613c92601083614343565b9150613c9d82614a3e565b602082019050919050565b6000613cb5602183614343565b9150613cc082614a67565b604082019050919050565b6000613cd8603d83614343565b9150613ce382614ab6565b604082019050919050565b6000613cfb602c83614343565b9150613d0682614b05565b604082019050919050565b6000613d1e603583614343565b9150613d2982614b54565b604082019050919050565b6000613d41601f83614343565b9150613d4c82614ba3565b602082019050919050565b608082016000820151613d6d6000850182613dac565b506020820151613d8060208501826138a0565b506040820151613d936040850182613dac565b506060820151613da6606085018261391c565b50505050565b613db5816143fd565b82525050565b613dc4816143fd565b82525050565b6000613dd682856139bb565b9150613de282846139bb565b91508190509392505050565b6000602082019050613e0360008301846138af565b92915050565b6000606082019050613e1e60008301866138af565b613e2b60208301856138af565b613e386040830184613dbb565b949350505050565b6000608082019050613e5560008301876138af565b613e6260208301866138af565b613e6f6040830185613dbb565b8181036060830152613e81818461393a565b905095945050505050565b60006020820190508181036000830152613ea681846138be565b905092915050565b6000602082019050613ec3600083018461392b565b92915050565b6000602082019050613ede6000830184613973565b92915050565b60006020820190508181036000830152613efe8184613982565b905092915050565b60006020820190508181036000830152613f1f816139ec565b9050919050565b60006020820190508181036000830152613f3f81613a0f565b9050919050565b60006020820190508181036000830152613f5f81613a32565b9050919050565b60006020820190508181036000830152613f7f81613a55565b9050919050565b60006020820190508181036000830152613f9f81613a78565b9050919050565b60006020820190508181036000830152613fbf81613a9b565b9050919050565b60006020820190508181036000830152613fdf81613abe565b9050919050565b60006020820190508181036000830152613fff81613ae1565b9050919050565b6000602082019050818103600083015261401f81613b04565b9050919050565b6000602082019050818103600083015261403f81613b27565b9050919050565b6000602082019050818103600083015261405f81613b4a565b9050919050565b6000602082019050818103600083015261407f81613b6d565b9050919050565b6000602082019050818103600083015261409f81613b90565b9050919050565b600060208201905081810360008301526140bf81613bb3565b9050919050565b600060208201905081810360008301526140df81613bd6565b9050919050565b600060208201905081810360008301526140ff81613bf9565b9050919050565b6000602082019050818103600083015261411f81613c1c565b9050919050565b6000602082019050818103600083015261413f81613c3f565b9050919050565b6000602082019050818103600083015261415f81613c62565b9050919050565b6000602082019050818103600083015261417f81613c85565b9050919050565b6000602082019050818103600083015261419f81613ca8565b9050919050565b600060208201905081810360008301526141bf81613ccb565b9050919050565b600060208201905081810360008301526141df81613cee565b9050919050565b600060208201905081810360008301526141ff81613d11565b9050919050565b6000602082019050818103600083015261421f81613d34565b9050919050565b600060808201905061423b6000830184613d57565b92915050565b60006020820190506142566000830184613dbb565b92915050565b6000614266614277565b9050614272828261449f565b919050565b6000604051905090565b600067ffffffffffffffff82111561429c5761429b614577565b5b6142a5826145a6565b9050602081019050919050565b600067ffffffffffffffff8211156142cd576142cc614577565b5b6142d6826145a6565b9050602081019050919050565b6000819050602082019050919050565b600081519050919050565b600081519050919050565b600081519050919050565b6000602082019050919050565b600082825260208201905092915050565b600082825260208201905092915050565b600082825260208201905092915050565b600081905092915050565b600061436a826143fd565b9150614375836143fd565b92508282101561438857614387614519565b5b828203905092915050565b600061439e826143dd565b9050919050565b60008115159050919050565b60007fffffffff0000000000000000000000000000000000000000000000000000000082169050919050565b600073ffffffffffffffffffffffffffffffffffffffff82169050919050565b6000819050919050565b600061441282614419565b9050919050565b6000614424826143dd565b9050919050565b82818337600083830152505050565b60005b8381101561445857808201518184015260208101905061443d565b83811115614467576000848401525b50505050565b6000600282049050600182168061448557607f821691505b6020821081141561449957614498614548565b5b50919050565b6144a8826145a6565b810181811067ffffffffffffffff821117156144c7576144c6614577565b5b80604052505050565b60006144db826143fd565b91507fffffffffffffffffffffffffffffffffffffffffffffffffffffffffffffffff82141561450e5761450d614519565b5b600182019050919050565b7f4e487b7100000000000000000000000000000000000000000000000000000000600052601160045260246000fd5b7f4e487b7100000000000000000000000000000000000000000000000000000000600052602260045260246000fd5b7f4e487b7100000000000000000000000000000000000000000000000000000000600052604160045260246000fd5b6000601f19601f8301169050919050565b7f4552433732313a2063616c6c6572206973206e6f7420746f6b656e206f776e6560008201527f72206f7220617070726f76656400000000000000000000000000000000000000602082015250565b7f455243373231456e756d657261626c653a206f776e657220696e646578206f7560008201527f74206f6620626f756e6473000000000000000000000000000000000000000000602082015250565b7f4552433732313a207472616e7366657220746f206e6f6e20455243373231526560008201527f63656976657220696d706c656d656e7465720000000000000000000000000000602082015250565b7f4f776e61626c653a206e6577206f776e657220697320746865207a65726f206160008201527f6464726573730000000000000000000000000000000000000000000000000000602082015250565b7f4552433732313a207472616e736665722066726f6d20696e636f72726563742060008201527f6f776e6572000000000000000000000000000000000000000000000000000000602082015250565b7f4552433732313a20746f6b656e20616c7265616479206d696e74656400000000600082015250565b7f4f6e6c79204e4654206f776e65722063616e206c69737420697420666f72207360008201527f616c650000000000000000000000000000000000000000000000000000000000602082015250565b7f4552433732313a207472616e7366657220746f20746865207a65726f2061646460008201527f7265737300000000000000000000000000000000000000000000000000000000602082015250565b7f4552433732313a20617070726f766520746f2063616c6c657200000000000000600082015250565b7f4552433732313a2061646472657373207a65726f206973206e6f74206120766160008201527f6c6964206f776e65720000000000000000000000000000000000000000000000602082015250565b7f496e73756666696369656e742066756e647320746f20627579204e4654000000600082015250565b7f4e465420616c7265616479206c697374656420666f722073616c650000000000600082015250565b7f45524337323155524953746f726167653a2055524920736574206f66206e6f6e60008201527f6578697374656e7420746f6b656e000000000000000000000000000000000000602082015250565b7f4e4654206973206e6f742063757272656e746c7920666f722073616c65000000600082015250565b7f4f6e6c79207468652073656c6c65722063616e2075706461746520746865207060008201527f7269636500000000000000000000000000000000000000000000000000000000602082015250565b7f4552433732313a206d696e7420746f20746865207a65726f2061646472657373600082015250565b7f4f776e61626c653a2063616c6c6572206973206e6f7420746865206f776e6572600082015250565b7f4e4654206973206e6f7420666f722073616c6500000000000000000000000000600082015250565b7f4552433732313a20696e76616c696420746f6b656e2049440000000000000000600082015250565b7f4e4654206e6f7420666f722073616c6500000000000000000000000000000000600082015250565b7f4552433732313a20617070726f76616c20746f2063757272656e74206f776e6560008201527f7200000000000000000000000000000000000000000000000000000000000000602082015250565b7f4552433732313a20617070726f76652063616c6c6572206973206e6f7420746f60008201527f6b656e206f776e6572206f7220617070726f76656420666f7220616c6c000000602082015250565b7f455243373231456e756d657261626c653a20676c6f62616c20696e646578206f60008201527f7574206f6620626f756e64730000000000000000000000000000000000000000602082015250565b7f455243373231456e756d657261626c653a20636f6e736563757469766520747260008201527f616e7366657273206e6f7420737570706f727465640000000000000000000000602082015250565b7f53656c6c65722063616e6e6f7420627579207468656972206f776e204e465400600082015250565b614bd581614393565b8114614be057600080fd5b50565b614bec816143a5565b8114614bf757600080fd5b50565b614c03816143b1565b8114614c0e57600080fd5b50565b614c1a816143fd565b8114614c2557600080fd5b5056fea264697066735822122006be006ccae7290c809f2faa391f013c47d09a638f89357380c162fb4532af3864736f6c63430008020033",
  "linkReferences": {},
  "deployedLinkReferences": {}
}