{
  "_format": "hh-sol-artifact-1",
  "contractName": "DragonBallSuperLedger",
  "sourceName": "contracts/DragonBallSuperLedger.sol",
  "abi": [
    {
      "inputs": [
        {
          "internalType": "contract ERC20",
          "name": "_communityToken",
          "type": "address"
        }
      ],
      "stateMutability": "nonpayable",
      "type": "constructor"
    },
    {
      "anonymous": false,
      "inputs": [
        {
          "indexed": true,
          "internalType": "address",
          "name": "owner",
          "type": "address"
        },
        {
          "indexed": true,
          "internalType": "address",
          "name": "approved",
          "type": "address"
        },
        {
          "indexed": true,
          "internalType": "uint256",
          "name": "tokenId",
          "type": "uint256"
        }
      ],
      "name": "Approval",
      "type": "event"
    },
    {
      "anonymous": false,
      "inputs": [
        {
          "indexed": true,
          "internalType": "address",
          "name": "owner",
          "type": "address"
        },
        {
          "indexed": true,
          "internalType": "address",
          "name": "operator",
          "type": "address"
        },
        {
          "indexed": false,
          "internalType": "bool",
          "name": "approved",
          "type": "bool"
        }
      ],
      "name": "ApprovalForAll",
      "type": "event"
    },
    {
      "anonymous": false,
      "inputs": [
        {
          "indexed": false,
          "internalType": "uint256",
          "name": "_fromTokenId",
          "type": "uint256"
        },
        {
          "indexed": false,
          "internalType": "uint256",
          "name": "_toTokenId",
          "type": "uint256"
        }
      ],
      "name": "BatchMetadataUpdate",
      "type": "event"
    },
    {
      "anonymous": false,
      "inputs": [
        {
          "indexed": false,
          "internalType": "uint256",
          "name": "_tokenId",
          "type": "uint256"
        }
      ],
      "name": "MetadataUpdate",
      "type": "event"
    },
    {
      "anonymous": false,
      "inputs": [
        {
          "indexed": true,
          "internalType": "uint256",
          "name": "tokenId",
          "type": "uint256"
        },
        {
          "indexed": true,
          "internalType": "address",
          "name": "seller",
          "type": "address"
        },
        {
          "indexed": false,
          "internalType": "uint256",
          "name": "price",
          "type": "uint256"
        }
      ],
      "name": "NFTListedForSale",
      "type": "event"
    },
    {
      "anonymous": false,
      "inputs": [
        {
          "indexed": true,
          "internalType": "uint256",
          "name": "tokenId",
          "type": "uint256"
        },
        {
          "indexed": true,
          "internalType": "address",
          "name": "buyer",
          "type": "address"
        },
        {
          "indexed": true,
          "internalType": "address",
          "name": "seller",
          "type": "address"
        },
        {
          "indexed": false,
          "internalType": "uint256",
          "name": "price",
          "type": "uint256"
        }
      ],
      "name": "NFTPurchased",
      "type": "event"
    },
    {
      "anonymous": false,
      "inputs": [
        {
          "indexed": true,
          "internalType": "address",
          "name": "previousOwner",
          "type": "address"
        },
        {
          "indexed": true,
          "internalType": "address",
          "name": "newOwner",
          "type": "address"
        }
      ],
      "name": "OwnershipTransferred",
      "type": "event"
    },
    {
      "anonymous": false,
      "inputs": [
        {
          "indexed": true,
          "internalType": "address",
          "name": "from",
          "type": "address"
        },
        {
          "indexed": true,
          "internalType": "address",
          "name": "to",
          "type": "address"
        },
        {
          "indexed": true,
          "internalType": "uint256",
          "name": "tokenId",
          "type": "uint256"
        }
      ],
      "name": "Transfer",
      "type": "event"
    },
    {
      "inputs": [
        {
          "internalType": "address",
          "name": "to",
          "type": "address"
        },
        {
          "internalType": "uint256",
          "name": "tokenId",
          "type": "uint256"
        }
      ],
      "name": "approve",
      "outputs": [],
      "stateMutability": "nonpayable",
      "type": "function"
    },
    {
      "inputs": [
        {
          "internalType": "address",
          "name": "owner",
          "type": "address"
        }
      ],
      "name": "balanceOf",
      "outputs": [
        {
          "internalType": "uint256",
          "name": "",
          "type": "uint256"
        }
      ],
      "stateMutability": "view",
      "type": "function"
    },
    {
      "inputs": [
        {
          "internalType": "uint256",
          "name": "tokenId",
          "type": "uint256"
        }
      ],
      "name": "buyNFT",
      "outputs": [],
      "stateMutability": "nonpayable",
      "type": "function"
    },
    {
      "inputs": [],
      "name": "communityToken",
      "outputs": [
        {
          "internalType": "contract ERC20",
          "name": "",
          "type": "address"
        }
      ],
      "stateMutability": "view",
      "type": "function"
    },
    {
      "inputs": [],
      "name": "getAllNFTsForSale",
      "outputs": [
        {
          "internalType": "uint256[]",
          "name": "",
          "type": "uint256[]"
        }
      ],
      "stateMutability": "view",
      "type": "function"
    },
    {
      "inputs": [
        {
          "internalType": "uint256",
          "name": "tokenId",
          "type": "uint256"
        }
      ],
      "name": "getApproved",
      "outputs": [
        {
          "internalType": "address",
          "name": "",
          "type": "address"
        }
      ],
      "stateMutability": "view",
      "type": "function"
    },
    {
      "inputs": [],
      "name": "getCurrentTokenId",
      "outputs": [
        {
          "internalType": "uint256",
          "name": "",
          "type": "uint256"
        }
      ],
      "stateMutability": "view",
      "type": "function"
    },
    {
      "inputs": [
        {
          "internalType": "uint256",
          "name": "tokenId",
          "type": "uint256"
        }
      ],
      "name": "getSaleItem",
      "outputs": [
        {
          "components": [
            {
              "internalType": "uint256",
              "name": "tokenId",
              "type": "uint256"
            },
            {
              "internalType": "address",
              "name": "seller",
              "type": "address"
            },
            {
              "internalType": "uint256",
              "name": "price",
              "type": "uint256"
            },
            {
              "internalType": "bool",
              "name": "forSale",
              "type": "bool"
            }
          ],
          "internalType": "struct DragonBallSuperLedger.NFTSaleItem",
          "name": "",
          "type": "tuple"
        }
      ],
      "stateMutability": "view",
      "type": "function"
    },
    {
      "inputs": [
        {
          "internalType": "uint256",
          "name": "tokenId",
          "type": "uint256"
        }
      ],
      "name": "getSaleItemDetails",
      "outputs": [
        {
          "components": [
            {
              "internalType": "uint256",
              "name": "tokenId",
              "type": "uint256"
            },
            {
              "internalType": "address",
              "name": "seller",
              "type": "address"
            },
            {
              "internalType": "uint256",
              "name": "price",
              "type": "uint256"
            },
            {
              "internalType": "bool",
              "name": "forSale",
              "type": "bool"
            }
          ],
          "internalType": "struct DragonBallSuperLedger.NFTSaleItem",
          "name": "",
          "type": "tuple"
        }
      ],
      "stateMutability": "view",
      "type": "function"
    },
    {
      "inputs": [
        {
          "internalType": "address",
          "name": "owner",
          "type": "address"
        },
        {
          "internalType": "address",
          "name": "operator",
          "type": "address"
        }
      ],
      "name": "isApprovedForAll",
      "outputs": [
        {
          "internalType": "bool",
          "name": "",
          "type": "bool"
        }
      ],
      "stateMutability": "view",
      "type": "function"
    },
    {
      "inputs": [
        {
          "internalType": "uint256",
          "name": "tokenId",
          "type": "uint256"
        }
      ],
      "name": "listNFTForSale",
      "outputs": [],
      "stateMutability": "nonpayable",
      "type": "function"
    },
    {
      "inputs": [
        {
          "internalType": "string",
          "name": "_uri",
          "type": "string"
        },
        {
          "internalType": "uint256",
          "name": "priceInCommunityTokens",
          "type": "uint256"
        },
        {
          "internalType": "bool",
          "name": "listForSale",
          "type": "bool"
        }
      ],
      "name": "mint",
      "outputs": [],
      "stateMutability": "nonpayable",
      "type": "function"
    },
    {
      "inputs": [],
      "name": "name",
      "outputs": [
        {
          "internalType": "string",
          "name": "",
          "type": "string"
        }
      ],
      "stateMutability": "view",
      "type": "function"
    },
    {
      "inputs": [],
      "name": "owner",
      "outputs": [
        {
          "internalType": "address",
          "name": "",
          "type": "address"
        }
      ],
      "stateMutability": "view",
      "type": "function"
    },
    {
      "inputs": [
        {
          "internalType": "uint256",
          "name": "tokenId",
          "type": "uint256"
        }
      ],
      "name": "ownerOf",
      "outputs": [
        {
          "internalType": "address",
          "name": "",
          "type": "address"
        }
      ],
      "stateMutability": "view",
      "type": "function"
    },
    {
      "inputs": [],
      "name": "renounceOwnership",
      "outputs": [],
      "stateMutability": "nonpayable",
      "type": "function"
    },
    {
      "inputs": [
        {
          "internalType": "address",
          "name": "to",
          "type": "address"
        },
        {
          "internalType": "string",
          "name": "uri",
          "type": "string"
        }
      ],
      "name": "safeMint",
      "outputs": [],
      "stateMutability": "nonpayable",
      "type": "function"
    },
    {
      "inputs": [
        {
          "internalType": "address",
          "name": "from",
          "type": "address"
        },
        {
          "internalType": "address",
          "name": "to",
          "type": "address"
        },
        {
          "internalType": "uint256",
          "name": "tokenId",
          "type": "uint256"
        }
      ],
      "name": "safeTransferFrom",
      "outputs": [],
      "stateMutability": "nonpayable",
      "type": "function"
    },
    {
      "inputs": [
        {
          "internalType": "address",
          "name": "from",
          "type": "address"
        },
        {
          "internalType": "address",
          "name": "to",
          "type": "address"
        },
        {
          "internalType": "uint256",
          "name": "tokenId",
          "type": "uint256"
        },
        {
          "internalType": "bytes",
          "name": "data",
          "type": "bytes"
        }
      ],
      "name": "safeTransferFrom",
      "outputs": [],
      "stateMutability": "nonpayable",
      "type": "function"
    },
    {
      "inputs": [
        {
          "internalType": "address",
          "name": "operator",
          "type": "address"
        },
        {
          "internalType": "bool",
          "name": "approved",
          "type": "bool"
        }
      ],
      "name": "setApprovalForAll",
      "outputs": [],
      "stateMutability": "nonpayable",
      "type": "function"
    },
    {
      "inputs": [
        {
          "internalType": "bytes4",
          "name": "interfaceId",
          "type": "bytes4"
        }
      ],
      "name": "supportsInterface",
      "outputs": [
        {
          "internalType": "bool",
          "name": "",
          "type": "bool"
        }
      ],
      "stateMutability": "view",
      "type": "function"
    },
    {
      "inputs": [],
      "name": "symbol",
      "outputs": [
        {
          "internalType": "string",
          "name": "",
          "type": "string"
        }
      ],
      "stateMutability": "view",
      "type": "function"
    },
    {
      "inputs": [
        {
          "internalType": "uint256",
          "name": "index",
          "type": "uint256"
        }
      ],
      "name": "tokenByIndex",
      "outputs": [
        {
          "internalType": "uint256",
          "name": "",
          "type": "uint256"
        }
      ],
      "stateMutability": "view",
      "type": "function"
    },
    {
      "inputs": [
        {
          "internalType": "address",
          "name": "owner",
          "type": "address"
        },
        {
          "internalType": "uint256",
          "name": "index",
          "type": "uint256"
        }
      ],
      "name": "tokenOfOwnerByIndex",
      "outputs": [
        {
          "internalType": "uint256",
          "name": "",
          "type": "uint256"
        }
      ],
      "stateMutability": "view",
      "type": "function"
    },
    {
      "inputs": [
        {
          "internalType": "uint256",
          "name": "tokenId",
          "type": "uint256"
        }
      ],
      "name": "tokenURI",
      "outputs": [
        {
          "internalType": "string",
          "name": "",
          "type": "string"
        }
      ],
      "stateMutability": "view",
      "type": "function"
    },
    {
      "inputs": [],
      "name": "totalSupply",
      "outputs": [
        {
          "internalType": "uint256",
          "name": "",
          "type": "uint256"
        }
      ],
      "stateMutability": "view",
      "type": "function"
    },
    {
      "inputs": [
        {
          "internalType": "address",
          "name": "from",
          "type": "address"
        },
        {
          "internalType": "address",
          "name": "to",
          "type": "address"
        },
        {
          "internalType": "uint256",
          "name": "tokenId",
          "type": "uint256"
        }
      ],
      "name": "transferFrom",
      "outputs": [],
      "stateMutability": "nonpayable",
      "type": "function"
    },
    {
      "inputs": [
        {
          "internalType": "address",
          "name": "newOwner",
          "type": "address"
        }
      ],
      "name": "transferOwnership",
      "outputs": [],
      "stateMutability": "nonpayable",
      "type": "function"
    },
    {
      "inputs": [
        {
          "internalType": "uint256",
          "name": "tokenId",
          "type": "uint256"
        },
        {
          "internalType": "uint256",
          "name": "newPriceInCommunityTokens",
          "type": "uint256"
        }
      ],
      "name": "updateSalePrice",
      "outputs": [],
      "stateMutability": "nonpayable",
      "type": "function"
    }
  ],
  "bytecode": "0x60806040523480156200001157600080fd5b50604051620050a9380380620050a98339818101604052810190620000379190620002d4565b6040518060400160405280601281526020017f447261676f6e42616c6c53757065724e465400000000000000000000000000008152506040518060400160405280600681526020017f4442534e465400000000000000000000000000000000000000000000000000008152508160009080519060200190620000bb9291906200020d565b508060019080519060200190620000d49291906200020d565b505050620000f7620000eb6200013f60201b60201c565b6200014760201b60201c565b80600d60006101000a81548173ffffffffffffffffffffffffffffffffffffffff021916908373ffffffffffffffffffffffffffffffffffffffff16021790555050620003c7565b600033905090565b6000600b60009054906101000a900473ffffffffffffffffffffffffffffffffffffffff16905081600b60006101000a81548173ffffffffffffffffffffffffffffffffffffffff021916908373ffffffffffffffffffffffffffffffffffffffff1602179055508173ffffffffffffffffffffffffffffffffffffffff168173ffffffffffffffffffffffffffffffffffffffff167f8be0079c531659141344cd1fd0a4f28419497f9722a3daafe3b4186f6b6457e060405160405180910390a35050565b8280546200021b9062000348565b90600052602060002090601f0160209004810192826200023f57600085556200028b565b82601f106200025a57805160ff19168380011785556200028b565b828001600101855582156200028b579182015b828111156200028a5782518255916020019190600101906200026d565b5b5090506200029a91906200029e565b5090565b5b80821115620002b95760008160009055506001016200029f565b5090565b600081519050620002ce81620003ad565b92915050565b600060208284031215620002e757600080fd5b6000620002f784828501620002bd565b91505092915050565b60006200030d8262000328565b9050919050565b6000620003218262000300565b9050919050565b600073ffffffffffffffffffffffffffffffffffffffff82169050919050565b600060028204905060018216806200036157607f821691505b602082108114156200037857620003776200037e565b5b50919050565b7f4e487b7100000000000000000000000000000000000000000000000000000000600052602260045260246000fd5b620003b88162000314565b8114620003c457600080fd5b50565b614cd280620003d76000396000f3fe608060405234801561001057600080fd5b50600436106101cf5760003560e01c80636352211e11610104578063b88d4fde116100a2578063de58048c11610071578063de58048c1461052a578063e985e9c514610548578063f0dc63d014610578578063f2fde38b146105a8576101cf565b8063b88d4fde14610492578063c87b56dd146104ae578063c9e40caf146104de578063d204c45e1461050e576101cf565b80638da5cb5b116100de5780638da5cb5b1461041e57806395d89b411461043c57806396f76f6f1461045a578063a22cb46514610476576101cf565b80636352211e146103b457806370a08231146103e4578063715018a614610414576101cf565b806329aa1617116101715780634896672e1161014b5780634896672e1461032e5780634f6ccce71461034a57806351ed82881461037a5780635618923614610396576101cf565b806329aa1617146102c45780632f745c59146102e257806342842e0e14610312576101cf565b8063095ea7b3116101ad578063095ea7b31461025257806318160ddd1461026e57806322d7c20f1461028c57806323b872dd146102a8576101cf565b806301ffc9a7146101d457806306fdde0314610204578063081812fc14610222575b600080fd5b6101ee60048036038101906101e991906137b5565b6105c4565b6040516101fb9190613f22565b60405180910390f35b61020c6105d6565b6040516102199190613f58565b60405180910390f35b61023c6004803603810190610237919061386e565b610668565b6040516102499190613e62565b60405180910390f35b61026c60048036038101906102679190613750565b6106ae565b005b6102766107c6565b60405161028391906142b5565b60405180910390f35b6102a660048036038101906102a1919061386e565b6107d3565b005b6102c260048036038101906102bd91906135f6565b6109f6565b005b6102cc610a56565b6040516102d99190613f3d565b60405180910390f35b6102fc60048036038101906102f79190613750565b610a7c565b60405161030991906142b5565b60405180910390f35b61032c600480360381019061032791906135f6565b610b21565b005b610348600480360381019061034391906138c0565b610b41565b005b610364600480360381019061035f919061386e565b610c67565b60405161037191906142b5565b60405180910390f35b610394600480360381019061038f919061386e565b610cfe565b005b61039e6110eb565b6040516103ab91906142b5565b60405180910390f35b6103ce60048036038101906103c9919061386e565b6110fc565b6040516103db9190613e62565b60405180910390f35b6103fe60048036038101906103f99190613591565b611183565b60405161040b91906142b5565b60405180910390f35b61041c61123b565b005b61042661124f565b6040516104339190613e62565b60405180910390f35b610444611279565b6040516104519190613f58565b60405180910390f35b610474600480360381019061046f9190613807565b61130b565b005b610490600480360381019061048b91906136c0565b611466565b005b6104ac60048036038101906104a79190613645565b61147c565b005b6104c860048036038101906104c3919061386e565b6114de565b6040516104d59190613f58565b60405180910390f35b6104f860048036038101906104f3919061386e565b6114f0565b604051610505919061429a565b60405180910390f35b610528600480360381019061052391906136fc565b6115a2565b005b6105326115db565b60405161053f9190613f00565b60405180910390f35b610562600480360381019061055d91906135ba565b611774565b60405161056f9190613f22565b60405180910390f35b610592600480360381019061058d919061386e565b611808565b60405161059f919061429a565b60405180910390f35b6105c260048036038101906105bd9190613591565b61191d565b005b60006105cf826119a1565b9050919050565b6060600080546105e5906144e1565b80601f0160208091040260200160405190810160405280929190818152602001828054610611906144e1565b801561065e5780601f106106335761010080835404028352916020019161065e565b820191906000526020600020905b81548152906001019060200180831161064157829003601f168201915b5050505050905090565b600061067382611a1b565b6004600083815260200190815260200160002060009054906101000a900473ffffffffffffffffffffffffffffffffffffffff169050919050565b60006106b9826110fc565b90508073ffffffffffffffffffffffffffffffffffffffff168373ffffffffffffffffffffffffffffffffffffffff16141561072a576040517f08c379a0000000000000000000000000000000000000000000000000000000008152600401610721906141fa565b60405180910390fd5b8073ffffffffffffffffffffffffffffffffffffffff16610749611a66565b73ffffffffffffffffffffffffffffffffffffffff161480610778575061077781610772611a66565b611774565b5b6107b7576040517f08c379a00000000000000000000000000000000000000000000000000000000081526004016107ae9061421a565b60405180910390fd5b6107c18383611a6e565b505050565b6000600980549050905090565b3373ffffffffffffffffffffffffffffffffffffffff166107f3826110fc565b73ffffffffffffffffffffffffffffffffffffffff1614610849576040517f08c379a00000000000000000000000000000000000000000000000000000000081526004016108409061403a565b60405180910390fd5b600e600082815260200190815260200160002060030160009054906101000a900460ff16156108ad576040517f08c379a00000000000000000000000000000000000000000000000000000000081526004016108a4906140da565b60405180910390fd5b60405180608001604052808281526020013373ffffffffffffffffffffffffffffffffffffffff168152602001600e600084815260200190815260200160002060020154815260200160011515815250600e60008381526020019081526020016000206000820151816000015560208201518160010160006101000a81548173ffffffffffffffffffffffffffffffffffffffff021916908373ffffffffffffffffffffffffffffffffffffffff1602179055506040820151816002015560608201518160030160006101000a81548160ff0219169083151502179055509050503373ffffffffffffffffffffffffffffffffffffffff16817f9ac3db0a090d3e531273a48a8ad054f0d81cab16aba74015d3a8980bf3e079f6600e6000858152602001908152602001600020600201546040516109eb91906142b5565b60405180910390a350565b610a07610a01611a66565b82611b27565b610a46576040517f08c379a0000000000000000000000000000000000000000000000000000000008152600401610a3d90613f7a565b60405180910390fd5b610a51838383611bbc565b505050565b600d60009054906101000a900473ffffffffffffffffffffffffffffffffffffffff1681565b6000610a8783611183565b8210610ac8576040517f08c379a0000000000000000000000000000000000000000000000000000000008152600401610abf90613f9a565b60405180910390fd5b600760008473ffffffffffffffffffffffffffffffffffffffff1673ffffffffffffffffffffffffffffffffffffffff168152602001908152602001600020600083815260200190815260200160002054905092915050565b610b3c8383836040518060200160405280600081525061147c565b505050565b600e600083815260200190815260200160002060030160009054906101000a900460ff16610ba4576040517f08c379a0000000000000000000000000000000000000000000000000000000008152600401610b9b9061419a565b60405180910390fd5b3373ffffffffffffffffffffffffffffffffffffffff16600e600084815260200190815260200160002060010160009054906101000a900473ffffffffffffffffffffffffffffffffffffffff1673ffffffffffffffffffffffffffffffffffffffff1614610c48576040517f08c379a0000000000000000000000000000000000000000000000000000000008152600401610c3f9061413a565b60405180910390fd5b80600e6000848152602001908152602001600020600201819055505050565b6000610c716107c6565b8210610cb2576040517f08c379a0000000000000000000000000000000000000000000000000000000008152600401610ca99061423a565b60405180910390fd5b60098281548110610cec577f4e487b7100000000000000000000000000000000000000000000000000000000600052603260045260246000fd5b90600052602060002001549050919050565b6000600e600083815260200190815260200160002090508060030160009054906101000a900460ff16610d66576040517f08c379a0000000000000000000000000000000000000000000000000000000008152600401610d5d906141da565b60405180910390fd5b8060020154600d60009054906101000a900473ffffffffffffffffffffffffffffffffffffffff1673ffffffffffffffffffffffffffffffffffffffff166370a08231336040518263ffffffff1660e01b8152600401610dc69190613e62565b60206040518083038186803b158015610dde57600080fd5b505afa158015610df2573d6000803e3d6000fd5b505050506040513d601f19601f82011682018060405250810190610e169190613897565b1015610e57576040517f08c379a0000000000000000000000000000000000000000000000000000000008152600401610e4e906140ba565b60405180910390fd5b3373ffffffffffffffffffffffffffffffffffffffff168160010160009054906101000a900473ffffffffffffffffffffffffffffffffffffffff1673ffffffffffffffffffffffffffffffffffffffff161415610eea576040517f08c379a0000000000000000000000000000000000000000000000000000000008152600401610ee19061427a565b60405180910390fd5b60008160010160009054906101000a900473ffffffffffffffffffffffffffffffffffffffff169050600d60009054906101000a900473ffffffffffffffffffffffffffffffffffffffff1673ffffffffffffffffffffffffffffffffffffffff166323b872dd338460010160009054906101000a900473ffffffffffffffffffffffffffffffffffffffff1685600201546040518463ffffffff1660e01b8152600401610f9a93929190613e7d565b602060405180830381600087803b158015610fb457600080fd5b505af1158015610fc8573d6000803e3d6000fd5b505050506040513d601f19601f82011682018060405250810190610fec919061378c565b5061101c8260010160009054906101000a900473ffffffffffffffffffffffffffffffffffffffff163385611bbc565b60008260030160006101000a81548160ff021916908315150217905550338260010160006101000a81548173ffffffffffffffffffffffffffffffffffffffff021916908373ffffffffffffffffffffffffffffffffffffffff1602179055508073ffffffffffffffffffffffffffffffffffffffff163373ffffffffffffffffffffffffffffffffffffffff16847fef1fb2bd31f5ed737e6054243d9b5eacd3af967f35af45e8fb844ca6dbbe98f985600201546040516110de91906142b5565b60405180910390a4505050565b60006110f7600c611eb6565b905090565b60008061110883611ec4565b9050600073ffffffffffffffffffffffffffffffffffffffff168173ffffffffffffffffffffffffffffffffffffffff16141561117a576040517f08c379a0000000000000000000000000000000000000000000000000000000008152600401611171906141ba565b60405180910390fd5b80915050919050565b60008073ffffffffffffffffffffffffffffffffffffffff168273ffffffffffffffffffffffffffffffffffffffff1614156111f4576040517f08c379a00000000000000000000000000000000000000000000000000000000081526004016111eb9061409a565b60405180910390fd5b600360008373ffffffffffffffffffffffffffffffffffffffff1673ffffffffffffffffffffffffffffffffffffffff168152602001908152602001600020549050919050565b611243611f01565b61124d6000611f7f565b565b6000600b60009054906101000a900473ffffffffffffffffffffffffffffffffffffffff16905090565b606060018054611288906144e1565b80601f01602080910402602001604051908101604052809291908181526020018280546112b4906144e1565b80156113015780601f106112d657610100808354040283529160200191611301565b820191906000526020600020905b8154815290600101906020018083116112e457829003601f168201915b5050505050905090565b611313611f01565b600061131f600c611eb6565b905061132b600c612045565b611335338261205b565b61133f8185612079565b81156114605760405180608001604052808281526020013373ffffffffffffffffffffffffffffffffffffffff16815260200184815260200160011515815250600e60008381526020019081526020016000206000820151816000015560208201518160010160006101000a81548173ffffffffffffffffffffffffffffffffffffffff021916908373ffffffffffffffffffffffffffffffffffffffff1602179055506040820151816002015560608201518160030160006101000a81548160ff0219169083151502179055509050503373ffffffffffffffffffffffffffffffffffffffff16817f9ac3db0a090d3e531273a48a8ad054f0d81cab16aba74015d3a8980bf3e079f68560405161145791906142b5565b60405180910390a35b50505050565b611478611471611a66565b8383612124565b5050565b61148d611487611a66565b83611b27565b6114cc576040517f08c379a00000000000000000000000000000000000000000000000000000000081526004016114c390613f7a565b60405180910390fd5b6114d884848484612291565b50505050565b60606114e9826122ed565b9050919050565b6114f861334b565b600e6000838152602001908152602001600020604051806080016040529081600082015481526020016001820160009054906101000a900473ffffffffffffffffffffffffffffffffffffffff1673ffffffffffffffffffffffffffffffffffffffff1673ffffffffffffffffffffffffffffffffffffffff168152602001600282015481526020016003820160009054906101000a900460ff1615151515815250509050919050565b6115aa611f01565b60006115b6600c611eb6565b90506115c2600c612045565b6115cc838261205b565b6115d68183612079565b505050565b606060006115e9600c611eb6565b90506000805b8281101561164257600e600082815260200190815260200160002060030160009054906101000a900460ff161561162f57818061162b90614544565b9250505b808061163a90614544565b9150506115ef565b5060008167ffffffffffffffff811115611685577f4e487b7100000000000000000000000000000000000000000000000000000000600052604160045260246000fd5b6040519080825280602002602001820160405280156116b35781602001602082028036833780820191505090505b5090506000805b8481101561176957600e600082815260200190815260200160002060030160009054906101000a900460ff161561175657600e60008281526020019081526020016000206000015483838151811061173b577f4e487b7100000000000000000000000000000000000000000000000000000000600052603260045260246000fd5b602002602001018181525050818061175290614544565b9250505b808061176190614544565b9150506116ba565b508194505050505090565b6000600560008473ffffffffffffffffffffffffffffffffffffffff1673ffffffffffffffffffffffffffffffffffffffff16815260200190815260200160002060008373ffffffffffffffffffffffffffffffffffffffff1673ffffffffffffffffffffffffffffffffffffffff16815260200190815260200160002060009054906101000a900460ff16905092915050565b61181061334b565b600e600083815260200190815260200160002060030160009054906101000a900460ff16611873576040517f08c379a000000000000000000000000000000000000000000000000000000000815260040161186a9061411a565b60405180910390fd5b600e6000838152602001908152602001600020604051806080016040529081600082015481526020016001820160009054906101000a900473ffffffffffffffffffffffffffffffffffffffff1673ffffffffffffffffffffffffffffffffffffffff1673ffffffffffffffffffffffffffffffffffffffff168152602001600282015481526020016003820160009054906101000a900460ff1615151515815250509050919050565b611925611f01565b600073ffffffffffffffffffffffffffffffffffffffff168173ffffffffffffffffffffffffffffffffffffffff161415611995576040517f08c379a000000000000000000000000000000000000000000000000000000000815260040161198c90613fda565b60405180910390fd5b61199e81611f7f565b50565b60007f780e9d63000000000000000000000000000000000000000000000000000000007bffffffffffffffffffffffffffffffffffffffffffffffffffffffff1916827bffffffffffffffffffffffffffffffffffffffffffffffffffffffff19161480611a145750611a1382612400565b5b9050919050565b611a2481612461565b611a63576040517f08c379a0000000000000000000000000000000000000000000000000000000008152600401611a5a906141ba565b60405180910390fd5b50565b600033905090565b816004600083815260200190815260200160002060006101000a81548173ffffffffffffffffffffffffffffffffffffffff021916908373ffffffffffffffffffffffffffffffffffffffff160217905550808273ffffffffffffffffffffffffffffffffffffffff16611ae1836110fc565b73ffffffffffffffffffffffffffffffffffffffff167f8c5be1e5ebec7d5bd14f71427d1e84f3dd0314c0f7b2291e5b200ac8c7c3b92560405160405180910390a45050565b600080611b33836110fc565b90508073ffffffffffffffffffffffffffffffffffffffff168473ffffffffffffffffffffffffffffffffffffffff161480611b755750611b748185611774565b5b80611bb357508373ffffffffffffffffffffffffffffffffffffffff16611b9b84610668565b73ffffffffffffffffffffffffffffffffffffffff16145b91505092915050565b8273ffffffffffffffffffffffffffffffffffffffff16611bdc826110fc565b73ffffffffffffffffffffffffffffffffffffffff1614611c32576040517f08c379a0000000000000000000000000000000000000000000000000000000008152600401611c2990613ffa565b60405180910390fd5b600073ffffffffffffffffffffffffffffffffffffffff168273ffffffffffffffffffffffffffffffffffffffff161415611ca2576040517f08c379a0000000000000000000000000000000000000000000000000000000008152600401611c999061405a565b60405180910390fd5b611caf83838360016124a2565b8273ffffffffffffffffffffffffffffffffffffffff16611ccf826110fc565b73ffffffffffffffffffffffffffffffffffffffff1614611d25576040517f08c379a0000000000000000000000000000000000000000000000000000000008152600401611d1c90613ffa565b60405180910390fd5b6004600082815260200190815260200160002060006101000a81549073ffffffffffffffffffffffffffffffffffffffff02191690556001600360008573ffffffffffffffffffffffffffffffffffffffff1673ffffffffffffffffffffffffffffffffffffffff168152602001908152602001600020600082825403925050819055506001600360008473ffffffffffffffffffffffffffffffffffffffff1673ffffffffffffffffffffffffffffffffffffffff16815260200190815260200160002060008282540192505081905550816002600083815260200190815260200160002060006101000a81548173ffffffffffffffffffffffffffffffffffffffff021916908373ffffffffffffffffffffffffffffffffffffffff160217905550808273ffffffffffffffffffffffffffffffffffffffff168473ffffffffffffffffffffffffffffffffffffffff167fddf252ad1be2c89b69c2b068fc378daa952ba7f163c4a11628f55a4df523b3ef60405160405180910390a4611eb1838383600161250e565b505050565b600081600001549050919050565b60006002600083815260200190815260200160002060009054906101000a900473ffffffffffffffffffffffffffffffffffffffff169050919050565b611f09611a66565b73ffffffffffffffffffffffffffffffffffffffff16611f2761124f565b73ffffffffffffffffffffffffffffffffffffffff1614611f7d576040517f08c379a0000000000000000000000000000000000000000000000000000000008152600401611f749061417a565b60405180910390fd5b565b6000600b60009054906101000a900473ffffffffffffffffffffffffffffffffffffffff16905081600b60006101000a81548173ffffffffffffffffffffffffffffffffffffffff021916908373ffffffffffffffffffffffffffffffffffffffff1602179055508173ffffffffffffffffffffffffffffffffffffffff168173ffffffffffffffffffffffffffffffffffffffff167f8be0079c531659141344cd1fd0a4f28419497f9722a3daafe3b4186f6b6457e060405160405180910390a35050565b6001816000016000828254019250508190555050565b612075828260405180602001604052806000815250612514565b5050565b61208282612461565b6120c1576040517f08c379a00000000000000000000000000000000000000000000000000000000081526004016120b8906140fa565b60405180910390fd5b806006600084815260200190815260200160002090805190602001906120e892919061338b565b507ff8e1a15aba9398e019f0b49df1a4fde98ee17ae345cb5f6b5e2c27f5033e8ce78260405161211891906142b5565b60405180910390a15050565b8173ffffffffffffffffffffffffffffffffffffffff168373ffffffffffffffffffffffffffffffffffffffff161415612193576040517f08c379a000000000000000000000000000000000000000000000000000000000815260040161218a9061407a565b60405180910390fd5b80600560008573ffffffffffffffffffffffffffffffffffffffff1673ffffffffffffffffffffffffffffffffffffffff16815260200190815260200160002060008473ffffffffffffffffffffffffffffffffffffffff1673ffffffffffffffffffffffffffffffffffffffff16815260200190815260200160002060006101000a81548160ff0219169083151502179055508173ffffffffffffffffffffffffffffffffffffffff168373ffffffffffffffffffffffffffffffffffffffff167f17307eab39ab6107e8899845ad3d59bd9653f200f220920489ca2b5937696c31836040516122849190613f22565b60405180910390a3505050565b61229c848484611bbc565b6122a88484848461256f565b6122e7576040517f08c379a00000000000000000000000000000000000000000000000000000000081526004016122de90613fba565b60405180910390fd5b50505050565b60606122f882611a1b565b6000600660008481526020019081526020016000208054612318906144e1565b80601f0160208091040260200160405190810160405280929190818152602001828054612344906144e1565b80156123915780601f1061236657610100808354040283529160200191612391565b820191906000526020600020905b81548152906001019060200180831161237457829003601f168201915b5050505050905060006123a2612706565b90506000815114156123b85781925050506123fb565b6000825111156123ed5780826040516020016123d5929190613e3e565b604051602081830303815290604052925050506123fb565b6123f68461271d565b925050505b919050565b6000634906490660e01b7bffffffffffffffffffffffffffffffffffffffffffffffffffffffff1916827bffffffffffffffffffffffffffffffffffffffffffffffffffffffff1916148061245a575061245982612785565b5b9050919050565b60008073ffffffffffffffffffffffffffffffffffffffff1661248383611ec4565b73ffffffffffffffffffffffffffffffffffffffff1614159050919050565b6124af8484846001612867565b600e600083815260200190815260200160002060030160009054906101000a900460ff1615612508576000600e600084815260200190815260200160002060030160006101000a81548160ff0219169083151502179055505b50505050565b50505050565b61251e83836129c7565b61252b600084848461256f565b61256a576040517f08c379a000000000000000000000000000000000000000000000000000000000815260040161256190613fba565b60405180910390fd5b505050565b60006125908473ffffffffffffffffffffffffffffffffffffffff16612be5565b156126f9578373ffffffffffffffffffffffffffffffffffffffff1663150b7a026125b9611a66565b8786866040518563ffffffff1660e01b81526004016125db9493929190613eb4565b602060405180830381600087803b1580156125f557600080fd5b505af192505050801561262657506040513d601f19601f8201168201806040525081019061262391906137de565b60015b6126a9573d8060008114612656576040519150601f19603f3d011682016040523d82523d6000602084013e61265b565b606091505b506000815114156126a1576040517f08c379a000000000000000000000000000000000000000000000000000000000815260040161269890613fba565b60405180910390fd5b805181602001fd5b63150b7a0260e01b7bffffffffffffffffffffffffffffffffffffffffffffffffffffffff1916817bffffffffffffffffffffffffffffffffffffffffffffffffffffffff1916149150506126fe565b600190505b949350505050565b606060405180602001604052806000815250905090565b606061272882611a1b565b6000612732612706565b90506000815111612752576040518060200160405280600081525061277d565b8061275c84612c08565b60405160200161276d929190613e3e565b6040516020818303038152906040525b915050919050565b60007f80ac58cd000000000000000000000000000000000000000000000000000000007bffffffffffffffffffffffffffffffffffffffffffffffffffffffff1916827bffffffffffffffffffffffffffffffffffffffffffffffffffffffff1916148061285057507f5b5e139f000000000000000000000000000000000000000000000000000000007bffffffffffffffffffffffffffffffffffffffffffffffffffffffff1916827bffffffffffffffffffffffffffffffffffffffffffffffffffffffff1916145b80612860575061285f82612d2c565b5b9050919050565b61287384848484612d96565b60018111156128b7576040517f08c379a00000000000000000000000000000000000000000000000000000000081526004016128ae9061425a565b60405180910390fd5b6000829050600073ffffffffffffffffffffffffffffffffffffffff168573ffffffffffffffffffffffffffffffffffffffff1614156128ff576128fa81612d9c565b61293e565b8373ffffffffffffffffffffffffffffffffffffffff168573ffffffffffffffffffffffffffffffffffffffff161461293d5761293c8582612de5565b5b5b600073ffffffffffffffffffffffffffffffffffffffff168473ffffffffffffffffffffffffffffffffffffffff1614156129815761297c81612f52565b6129c0565b8473ffffffffffffffffffffffffffffffffffffffff168473ffffffffffffffffffffffffffffffffffffffff16146129bf576129be8482613095565b5b5b5050505050565b600073ffffffffffffffffffffffffffffffffffffffff168273ffffffffffffffffffffffffffffffffffffffff161415612a37576040517f08c379a0000000000000000000000000000000000000000000000000000000008152600401612a2e9061415a565b60405180910390fd5b612a4081612461565b15612a80576040517f08c379a0000000000000000000000000000000000000000000000000000000008152600401612a779061401a565b60405180910390fd5b612a8e6000838360016124a2565b612a9781612461565b15612ad7576040517f08c379a0000000000000000000000000000000000000000000000000000000008152600401612ace9061401a565b60405180910390fd5b6001600360008473ffffffffffffffffffffffffffffffffffffffff1673ffffffffffffffffffffffffffffffffffffffff16815260200190815260200160002060008282540192505081905550816002600083815260200190815260200160002060006101000a81548173ffffffffffffffffffffffffffffffffffffffff021916908373ffffffffffffffffffffffffffffffffffffffff160217905550808273ffffffffffffffffffffffffffffffffffffffff16600073ffffffffffffffffffffffffffffffffffffffff167fddf252ad1be2c89b69c2b068fc378daa952ba7f163c4a11628f55a4df523b3ef60405160405180910390a4612be160008383600161250e565b5050565b6000808273ffffffffffffffffffffffffffffffffffffffff163b119050919050565b606060006001612c1784613114565b01905060008167ffffffffffffffff811115612c5c577f4e487b7100000000000000000000000000000000000000000000000000000000600052604160045260246000fd5b6040519080825280601f01601f191660200182016040528015612c8e5781602001600182028036833780820191505090505b509050600082602001820190505b600115612d21578080600190039150507f3031323334353637383961626364656600000000000000000000000000000000600a86061a8153600a8581612d0b577f4e487b7100000000000000000000000000000000000000000000000000000000600052601260045260246000fd5b0494506000851415612d1c57612d21565b612c9c565b819350505050919050565b60007f01ffc9a7000000000000000000000000000000000000000000000000000000007bffffffffffffffffffffffffffffffffffffffffffffffffffffffff1916827bffffffffffffffffffffffffffffffffffffffffffffffffffffffff1916149050919050565b50505050565b600980549050600a600083815260200190815260200160002081905550600981908060018154018082558091505060019003906000526020600020016000909190919091505550565b60006001612df284611183565b612dfc91906143d3565b9050600060086000848152602001908152602001600020549050818114612ee1576000600760008673ffffffffffffffffffffffffffffffffffffffff1673ffffffffffffffffffffffffffffffffffffffff168152602001908152602001600020600084815260200190815260200160002054905080600760008773ffffffffffffffffffffffffffffffffffffffff1673ffffffffffffffffffffffffffffffffffffffff168152602001908152602001600020600084815260200190815260200160002081905550816008600083815260200190815260200160002081905550505b6008600084815260200190815260200160002060009055600760008573ffffffffffffffffffffffffffffffffffffffff1673ffffffffffffffffffffffffffffffffffffffff16815260200190815260200160002060008381526020019081526020016000206000905550505050565b60006001600980549050612f6691906143d3565b90506000600a6000848152602001908152602001600020549050600060098381548110612fbc577f4e487b7100000000000000000000000000000000000000000000000000000000600052603260045260246000fd5b906000526020600020015490508060098381548110613004577f4e487b7100000000000000000000000000000000000000000000000000000000600052603260045260246000fd5b906000526020600020018190555081600a600083815260200190815260200160002081905550600a6000858152602001908152602001600020600090556009805480613079577f4e487b7100000000000000000000000000000000000000000000000000000000600052603160045260246000fd5b6001900381819060005260206000200160009055905550505050565b60006130a083611183565b905081600760008573ffffffffffffffffffffffffffffffffffffffff1673ffffffffffffffffffffffffffffffffffffffff168152602001908152602001600020600083815260200190815260200160002081905550806008600084815260200190815260200160002081905550505050565b600080600090507a184f03e93ff9f4daa797ed6e38ed64bf6a1f0100000000000000008310613198577a184f03e93ff9f4daa797ed6e38ed64bf6a1f010000000000000000838161318e577f4e487b7100000000000000000000000000000000000000000000000000000000600052601260045260246000fd5b0492506040810190505b6d04ee2d6d415b85acef810000000083106131fb576d04ee2d6d415b85acef810000000083816131f1577f4e487b7100000000000000000000000000000000000000000000000000000000600052601260045260246000fd5b0492506020810190505b662386f26fc10000831061325057662386f26fc100008381613246577f4e487b7100000000000000000000000000000000000000000000000000000000600052601260045260246000fd5b0492506010810190505b6305f5e100831061329f576305f5e1008381613295577f4e487b7100000000000000000000000000000000000000000000000000000000600052601260045260246000fd5b0492506008810190505b61271083106132ea5761271083816132e0577f4e487b7100000000000000000000000000000000000000000000000000000000600052601260045260246000fd5b0492506004810190505b606483106133335760648381613329577f4e487b7100000000000000000000000000000000000000000000000000000000600052601260045260246000fd5b0492506002810190505b600a8310613342576001810190505b80915050919050565b604051806080016040528060008152602001600073ffffffffffffffffffffffffffffffffffffffff168152602001600081526020016000151581525090565b828054613397906144e1565b90600052602060002090601f0160209004810192826133b95760008555613400565b82601f106133d257805160ff1916838001178555613400565b82800160010185558215613400579182015b828111156133ff5782518255916020019190600101906133e4565b5b50905061340d9190613411565b5090565b5b8082111561342a576000816000905550600101613412565b5090565b600061344161343c846142f5565b6142d0565b90508281526020810184848401111561345957600080fd5b61346484828561449f565b509392505050565b600061347f61347a84614326565b6142d0565b90508281526020810184848401111561349757600080fd5b6134a284828561449f565b509392505050565b6000813590506134b981614c40565b92915050565b6000813590506134ce81614c57565b92915050565b6000815190506134e381614c57565b92915050565b6000813590506134f881614c6e565b92915050565b60008151905061350d81614c6e565b92915050565b600082601f83011261352457600080fd5b813561353484826020860161342e565b91505092915050565b600082601f83011261354e57600080fd5b813561355e84826020860161346c565b91505092915050565b60008135905061357681614c85565b92915050565b60008151905061358b81614c85565b92915050565b6000602082840312156135a357600080fd5b60006135b1848285016134aa565b91505092915050565b600080604083850312156135cd57600080fd5b60006135db858286016134aa565b92505060206135ec858286016134aa565b9150509250929050565b60008060006060848603121561360b57600080fd5b6000613619868287016134aa565b935050602061362a868287016134aa565b925050604061363b86828701613567565b9150509250925092565b6000806000806080858703121561365b57600080fd5b6000613669878288016134aa565b945050602061367a878288016134aa565b935050604061368b87828801613567565b925050606085013567ffffffffffffffff8111156136a857600080fd5b6136b487828801613513565b91505092959194509250565b600080604083850312156136d357600080fd5b60006136e1858286016134aa565b92505060206136f2858286016134bf565b9150509250929050565b6000806040838503121561370f57600080fd5b600061371d858286016134aa565b925050602083013567ffffffffffffffff81111561373a57600080fd5b6137468582860161353d565b9150509250929050565b6000806040838503121561376357600080fd5b6000613771858286016134aa565b925050602061378285828601613567565b9150509250929050565b60006020828403121561379e57600080fd5b60006137ac848285016134d4565b91505092915050565b6000602082840312156137c757600080fd5b60006137d5848285016134e9565b91505092915050565b6000602082840312156137f057600080fd5b60006137fe848285016134fe565b91505092915050565b60008060006060848603121561381c57600080fd5b600084013567ffffffffffffffff81111561383657600080fd5b6138428682870161353d565b935050602061385386828701613567565b9250506040613864868287016134bf565b9150509250925092565b60006020828403121561388057600080fd5b600061388e84828501613567565b91505092915050565b6000602082840312156138a957600080fd5b60006138b78482850161357c565b91505092915050565b600080604083850312156138d357600080fd5b60006138e185828601613567565b92505060206138f285828601613567565b9150509250929050565b60006139088383613e20565b60208301905092915050565b61391d81614407565b82525050565b61392c81614407565b82525050565b600061393d82614367565b6139478185614395565b935061395283614357565b8060005b8381101561398357815161396a88826138fc565b975061397583614388565b925050600181019050613956565b5085935050505092915050565b61399981614419565b82525050565b6139a881614419565b82525050565b60006139b982614372565b6139c381856143a6565b93506139d38185602086016144ae565b6139dc8161461a565b840191505092915050565b6139f08161447b565b82525050565b6000613a018261437d565b613a0b81856143b7565b9350613a1b8185602086016144ae565b613a248161461a565b840191505092915050565b6000613a3a8261437d565b613a4481856143c8565b9350613a548185602086016144ae565b80840191505092915050565b6000613a6d602d836143b7565b9150613a788261462b565b604082019050919050565b6000613a90602b836143b7565b9150613a9b8261467a565b604082019050919050565b6000613ab36032836143b7565b9150613abe826146c9565b604082019050919050565b6000613ad66026836143b7565b9150613ae182614718565b604082019050919050565b6000613af96025836143b7565b9150613b0482614767565b604082019050919050565b6000613b1c601c836143b7565b9150613b27826147b6565b602082019050919050565b6000613b3f6023836143b7565b9150613b4a826147df565b604082019050919050565b6000613b626024836143b7565b9150613b6d8261482e565b604082019050919050565b6000613b856019836143b7565b9150613b908261487d565b602082019050919050565b6000613ba86029836143b7565b9150613bb3826148a6565b604082019050919050565b6000613bcb601d836143b7565b9150613bd6826148f5565b602082019050919050565b6000613bee601b836143b7565b9150613bf98261491e565b602082019050919050565b6000613c11602e836143b7565b9150613c1c82614947565b604082019050919050565b6000613c34601d836143b7565b9150613c3f82614996565b602082019050919050565b6000613c576024836143b7565b9150613c62826149bf565b604082019050919050565b6000613c7a6020836143b7565b9150613c8582614a0e565b602082019050919050565b6000613c9d6020836143b7565b9150613ca882614a37565b602082019050919050565b6000613cc06013836143b7565b9150613ccb82614a60565b602082019050919050565b6000613ce36018836143b7565b9150613cee82614a89565b602082019050919050565b6000613d066010836143b7565b9150613d1182614ab2565b602082019050919050565b6000613d296021836143b7565b9150613d3482614adb565b604082019050919050565b6000613d4c603d836143b7565b9150613d5782614b2a565b604082019050919050565b6000613d6f602c836143b7565b9150613d7a82614b79565b604082019050919050565b6000613d926035836143b7565b9150613d9d82614bc8565b604082019050919050565b6000613db5601f836143b7565b9150613dc082614c17565b602082019050919050565b608082016000820151613de16000850182613e20565b506020820151613df46020850182613914565b506040820151613e076040850182613e20565b506060820151613e1a6060850182613990565b50505050565b613e2981614471565b82525050565b613e3881614471565b82525050565b6000613e4a8285613a2f565b9150613e568284613a2f565b91508190509392505050565b6000602082019050613e776000830184613923565b92915050565b6000606082019050613e926000830186613923565b613e9f6020830185613923565b613eac6040830184613e2f565b949350505050565b6000608082019050613ec96000830187613923565b613ed66020830186613923565b613ee36040830185613e2f565b8181036060830152613ef581846139ae565b905095945050505050565b60006020820190508181036000830152613f1a8184613932565b905092915050565b6000602082019050613f37600083018461399f565b92915050565b6000602082019050613f5260008301846139e7565b92915050565b60006020820190508181036000830152613f7281846139f6565b905092915050565b60006020820190508181036000830152613f9381613a60565b9050919050565b60006020820190508181036000830152613fb381613a83565b9050919050565b60006020820190508181036000830152613fd381613aa6565b9050919050565b60006020820190508181036000830152613ff381613ac9565b9050919050565b6000602082019050818103600083015261401381613aec565b9050919050565b6000602082019050818103600083015261403381613b0f565b9050919050565b6000602082019050818103600083015261405381613b32565b9050919050565b6000602082019050818103600083015261407381613b55565b9050919050565b6000602082019050818103600083015261409381613b78565b9050919050565b600060208201905081810360008301526140b381613b9b565b9050919050565b600060208201905081810360008301526140d381613bbe565b9050919050565b600060208201905081810360008301526140f381613be1565b9050919050565b6000602082019050818103600083015261411381613c04565b9050919050565b6000602082019050818103600083015261413381613c27565b9050919050565b6000602082019050818103600083015261415381613c4a565b9050919050565b6000602082019050818103600083015261417381613c6d565b9050919050565b6000602082019050818103600083015261419381613c90565b9050919050565b600060208201905081810360008301526141b381613cb3565b9050919050565b600060208201905081810360008301526141d381613cd6565b9050919050565b600060208201905081810360008301526141f381613cf9565b9050919050565b6000602082019050818103600083015261421381613d1c565b9050919050565b6000602082019050818103600083015261423381613d3f565b9050919050565b6000602082019050818103600083015261425381613d62565b9050919050565b6000602082019050818103600083015261427381613d85565b9050919050565b6000602082019050818103600083015261429381613da8565b9050919050565b60006080820190506142af6000830184613dcb565b92915050565b60006020820190506142ca6000830184613e2f565b92915050565b60006142da6142eb565b90506142e68282614513565b919050565b6000604051905090565b600067ffffffffffffffff8211156143105761430f6145eb565b5b6143198261461a565b9050602081019050919050565b600067ffffffffffffffff821115614341576143406145eb565b5b61434a8261461a565b9050602081019050919050565b6000819050602082019050919050565b600081519050919050565b600081519050919050565b600081519050919050565b6000602082019050919050565b600082825260208201905092915050565b600082825260208201905092915050565b600082825260208201905092915050565b600081905092915050565b60006143de82614471565b91506143e983614471565b9250828210156143fc576143fb61458d565b5b828203905092915050565b600061441282614451565b9050919050565b60008115159050919050565b60007fffffffff0000000000000000000000000000000000000000000000000000000082169050919050565b600073ffffffffffffffffffffffffffffffffffffffff82169050919050565b6000819050919050565b60006144868261448d565b9050919050565b600061449882614451565b9050919050565b82818337600083830152505050565b60005b838110156144cc5780820151818401526020810190506144b1565b838111156144db576000848401525b50505050565b600060028204905060018216806144f957607f821691505b6020821081141561450d5761450c6145bc565b5b50919050565b61451c8261461a565b810181811067ffffffffffffffff8211171561453b5761453a6145eb565b5b80604052505050565b600061454f82614471565b91507fffffffffffffffffffffffffffffffffffffffffffffffffffffffffffffffff8214156145825761458161458d565b5b600182019050919050565b7f4e487b7100000000000000000000000000000000000000000000000000000000600052601160045260246000fd5b7f4e487b7100000000000000000000000000000000000000000000000000000000600052602260045260246000fd5b7f4e487b7100000000000000000000000000000000000000000000000000000000600052604160045260246000fd5b6000601f19601f8301169050919050565b7f4552433732313a2063616c6c6572206973206e6f7420746f6b656e206f776e6560008201527f72206f7220617070726f76656400000000000000000000000000000000000000602082015250565b7f455243373231456e756d657261626c653a206f776e657220696e646578206f7560008201527f74206f6620626f756e6473000000000000000000000000000000000000000000602082015250565b7f4552433732313a207472616e7366657220746f206e6f6e20455243373231526560008201527f63656976657220696d706c656d656e7465720000000000000000000000000000602082015250565b7f4f776e61626c653a206e6577206f776e657220697320746865207a65726f206160008201527f6464726573730000000000000000000000000000000000000000000000000000602082015250565b7f4552433732313a207472616e736665722066726f6d20696e636f72726563742060008201527f6f776e6572000000000000000000000000000000000000000000000000000000602082015250565b7f4552433732313a20746f6b656e20616c7265616479206d696e74656400000000600082015250565b7f4f6e6c79204e4654206f776e65722063616e206c69737420697420666f72207360008201527f616c650000000000000000000000000000000000000000000000000000000000602082015250565b7f4552433732313a207472616e7366657220746f20746865207a65726f2061646460008201527f7265737300000000000000000000000000000000000000000000000000000000602082015250565b7f4552433732313a20617070726f766520746f2063616c6c657200000000000000600082015250565b7f4552433732313a2061646472657373207a65726f206973206e6f74206120766160008201527f6c6964206f776e65720000000000000000000000000000000000000000000000602082015250565b7f496e73756666696369656e742066756e647320746f20627579204e4654000000600082015250565b7f4e465420616c7265616479206c697374656420666f722073616c650000000000600082015250565b7f45524337323155524953746f726167653a2055524920736574206f66206e6f6e60008201527f6578697374656e7420746f6b656e000000000000000000000000000000000000602082015250565b7f4e4654206973206e6f742063757272656e746c7920666f722073616c65000000600082015250565b7f4f6e6c79207468652073656c6c65722063616e2075706461746520746865207060008201527f7269636500000000000000000000000000000000000000000000000000000000602082015250565b7f4552433732313a206d696e7420746f20746865207a65726f2061646472657373600082015250565b7f4f776e61626c653a2063616c6c6572206973206e6f7420746865206f776e6572600082015250565b7f4e4654206973206e6f7420666f722073616c6500000000000000000000000000600082015250565b7f4552433732313a20696e76616c696420746f6b656e2049440000000000000000600082015250565b7f4e4654206e6f7420666f722073616c6500000000000000000000000000000000600082015250565b7f4552433732313a20617070726f76616c20746f2063757272656e74206f776e6560008201527f7200000000000000000000000000000000000000000000000000000000000000602082015250565b7f4552433732313a20617070726f76652063616c6c6572206973206e6f7420746f60008201527f6b656e206f776e6572206f7220617070726f76656420666f7220616c6c000000602082015250565b7f455243373231456e756d657261626c653a20676c6f62616c20696e646578206f60008201527f7574206f6620626f756e64730000000000000000000000000000000000000000602082015250565b7f455243373231456e756d657261626c653a20636f6e736563757469766520747260008201527f616e7366657273206e6f7420737570706f727465640000000000000000000000602082015250565b7f53656c6c65722063616e6e6f7420627579207468656972206f776e204e465400600082015250565b614c4981614407565b8114614c5457600080fd5b50565b614c6081614419565b8114614c6b57600080fd5b50565b614c7781614425565b8114614c8257600080fd5b50565b614c8e81614471565b8114614c9957600080fd5b5056fea264697066735822122007731bb3de580df140cd53a718ecd2892dd82da0180eaeaf719371d3d6ea72d164736f6c63430008020033",
  "linkReferences": {},
  "deployedLinkReferences": {}
}