{
  "_format": "hh-sol-artifact-1",
  "contractName": "DragonBallSuperLedger",
  "sourceName": "contracts/DragonBallSuperLedger.sol",
  "abi": [
    {
      "inputs": [
        {
          "internalType": "contract ERC20",
          "name": "_communityToken",
          "type": "address"
        },
        {
          "internalType": "uint256",
          "name": "_mintPrice",
          "type": "uint256"
        }
      ],
      "stateMutability": "nonpayable",
      "type": "constructor"
    },
    {
      "anonymous": false,
      "inputs": [
        {
          "indexed": true,
          "internalType": "address",
          "name": "owner",
          "type": "address"
        },
        {
          "indexed": true,
          "internalType": "address",
          "name": "approved",
          "type": "address"
        },
        {
          "indexed": true,
          "internalType": "uint256",
          "name": "tokenId",
          "type": "uint256"
        }
      ],
      "name": "Approval",
      "type": "event"
    },
    {
      "anonymous": false,
      "inputs": [
        {
          "indexed": true,
          "internalType": "address",
          "name": "owner",
          "type": "address"
        },
        {
          "indexed": true,
          "internalType": "address",
          "name": "operator",
          "type": "address"
        },
        {
          "indexed": false,
          "internalType": "bool",
          "name": "approved",
          "type": "bool"
        }
      ],
      "name": "ApprovalForAll",
      "type": "event"
    },
    {
      "anonymous": false,
      "inputs": [
        {
          "indexed": false,
          "internalType": "uint256",
          "name": "_fromTokenId",
          "type": "uint256"
        },
        {
          "indexed": false,
          "internalType": "uint256",
          "name": "_toTokenId",
          "type": "uint256"
        }
      ],
      "name": "BatchMetadataUpdate",
      "type": "event"
    },
    {
      "anonymous": false,
      "inputs": [
        {
          "indexed": false,
          "internalType": "uint256",
          "name": "_tokenId",
          "type": "uint256"
        }
      ],
      "name": "MetadataUpdate",
      "type": "event"
    },
    {
      "anonymous": false,
      "inputs": [
        {
          "indexed": true,
          "internalType": "address",
          "name": "previousOwner",
          "type": "address"
        },
        {
          "indexed": true,
          "internalType": "address",
          "name": "newOwner",
          "type": "address"
        }
      ],
      "name": "OwnershipTransferred",
      "type": "event"
    },
    {
      "anonymous": false,
      "inputs": [
        {
          "indexed": true,
          "internalType": "address",
          "name": "from",
          "type": "address"
        },
        {
          "indexed": true,
          "internalType": "address",
          "name": "to",
          "type": "address"
        },
        {
          "indexed": true,
          "internalType": "uint256",
          "name": "tokenId",
          "type": "uint256"
        }
      ],
      "name": "Transfer",
      "type": "event"
    },
    {
      "inputs": [
        {
          "internalType": "address",
          "name": "to",
          "type": "address"
        },
        {
          "internalType": "uint256",
          "name": "tokenId",
          "type": "uint256"
        }
      ],
      "name": "approve",
      "outputs": [],
      "stateMutability": "nonpayable",
      "type": "function"
    },
    {
      "inputs": [
        {
          "internalType": "address",
          "name": "owner",
          "type": "address"
        }
      ],
      "name": "balanceOf",
      "outputs": [
        {
          "internalType": "uint256",
          "name": "",
          "type": "uint256"
        }
      ],
      "stateMutability": "view",
      "type": "function"
    },
    {
      "inputs": [],
      "name": "communityToken",
      "outputs": [
        {
          "internalType": "contract ERC20",
          "name": "",
          "type": "address"
        }
      ],
      "stateMutability": "view",
      "type": "function"
    },
    {
      "inputs": [
        {
          "internalType": "uint256",
          "name": "tokenId",
          "type": "uint256"
        }
      ],
      "name": "getApproved",
      "outputs": [
        {
          "internalType": "address",
          "name": "",
          "type": "address"
        }
      ],
      "stateMutability": "view",
      "type": "function"
    },
    {
      "inputs": [],
      "name": "getCurrentTokenId",
      "outputs": [
        {
          "internalType": "uint256",
          "name": "",
          "type": "uint256"
        }
      ],
      "stateMutability": "view",
      "type": "function"
    },
    {
      "inputs": [
        {
          "internalType": "address",
          "name": "owner",
          "type": "address"
        },
        {
          "internalType": "address",
          "name": "operator",
          "type": "address"
        }
      ],
      "name": "isApprovedForAll",
      "outputs": [
        {
          "internalType": "bool",
          "name": "",
          "type": "bool"
        }
      ],
      "stateMutability": "view",
      "type": "function"
    },
    {
      "inputs": [
        {
          "internalType": "string",
          "name": "_uri",
          "type": "string"
        }
      ],
      "name": "mint",
      "outputs": [],
      "stateMutability": "nonpayable",
      "type": "function"
    },
    {
      "inputs": [],
      "name": "mintEnabled",
      "outputs": [
        {
          "internalType": "bool",
          "name": "",
          "type": "bool"
        }
      ],
      "stateMutability": "view",
      "type": "function"
    },
    {
      "inputs": [],
      "name": "mintPrice",
      "outputs": [
        {
          "internalType": "uint256",
          "name": "",
          "type": "uint256"
        }
      ],
      "stateMutability": "view",
      "type": "function"
    },
    {
      "inputs": [],
      "name": "name",
      "outputs": [
        {
          "internalType": "string",
          "name": "",
          "type": "string"
        }
      ],
      "stateMutability": "view",
      "type": "function"
    },
    {
      "inputs": [],
      "name": "owner",
      "outputs": [
        {
          "internalType": "address",
          "name": "",
          "type": "address"
        }
      ],
      "stateMutability": "view",
      "type": "function"
    },
    {
      "inputs": [
        {
          "internalType": "uint256",
          "name": "tokenId",
          "type": "uint256"
        }
      ],
      "name": "ownerOf",
      "outputs": [
        {
          "internalType": "address",
          "name": "",
          "type": "address"
        }
      ],
      "stateMutability": "view",
      "type": "function"
    },
    {
      "inputs": [],
      "name": "renounceOwnership",
      "outputs": [],
      "stateMutability": "nonpayable",
      "type": "function"
    },
    {
      "inputs": [
        {
          "internalType": "address",
          "name": "to",
          "type": "address"
        },
        {
          "internalType": "string",
          "name": "uri",
          "type": "string"
        }
      ],
      "name": "safeMint",
      "outputs": [],
      "stateMutability": "nonpayable",
      "type": "function"
    },
    {
      "inputs": [
        {
          "internalType": "address",
          "name": "from",
          "type": "address"
        },
        {
          "internalType": "address",
          "name": "to",
          "type": "address"
        },
        {
          "internalType": "uint256",
          "name": "tokenId",
          "type": "uint256"
        }
      ],
      "name": "safeTransferFrom",
      "outputs": [],
      "stateMutability": "nonpayable",
      "type": "function"
    },
    {
      "inputs": [
        {
          "internalType": "address",
          "name": "from",
          "type": "address"
        },
        {
          "internalType": "address",
          "name": "to",
          "type": "address"
        },
        {
          "internalType": "uint256",
          "name": "tokenId",
          "type": "uint256"
        },
        {
          "internalType": "bytes",
          "name": "data",
          "type": "bytes"
        }
      ],
      "name": "safeTransferFrom",
      "outputs": [],
      "stateMutability": "nonpayable",
      "type": "function"
    },
    {
      "inputs": [
        {
          "internalType": "address",
          "name": "operator",
          "type": "address"
        },
        {
          "internalType": "bool",
          "name": "approved",
          "type": "bool"
        }
      ],
      "name": "setApprovalForAll",
      "outputs": [],
      "stateMutability": "nonpayable",
      "type": "function"
    },
    {
      "inputs": [
        {
          "internalType": "bool",
          "name": "_mintEnabled",
          "type": "bool"
        }
      ],
      "name": "setMintingStatus",
      "outputs": [],
      "stateMutability": "nonpayable",
      "type": "function"
    },
    {
      "inputs": [
        {
          "internalType": "bytes4",
          "name": "interfaceId",
          "type": "bytes4"
        }
      ],
      "name": "supportsInterface",
      "outputs": [
        {
          "internalType": "bool",
          "name": "",
          "type": "bool"
        }
      ],
      "stateMutability": "view",
      "type": "function"
    },
    {
      "inputs": [],
      "name": "symbol",
      "outputs": [
        {
          "internalType": "string",
          "name": "",
          "type": "string"
        }
      ],
      "stateMutability": "view",
      "type": "function"
    },
    {
      "inputs": [
        {
          "internalType": "uint256",
          "name": "index",
          "type": "uint256"
        }
      ],
      "name": "tokenByIndex",
      "outputs": [
        {
          "internalType": "uint256",
          "name": "",
          "type": "uint256"
        }
      ],
      "stateMutability": "view",
      "type": "function"
    },
    {
      "inputs": [
        {
          "internalType": "address",
          "name": "owner",
          "type": "address"
        },
        {
          "internalType": "uint256",
          "name": "index",
          "type": "uint256"
        }
      ],
      "name": "tokenOfOwnerByIndex",
      "outputs": [
        {
          "internalType": "uint256",
          "name": "",
          "type": "uint256"
        }
      ],
      "stateMutability": "view",
      "type": "function"
    },
    {
      "inputs": [
        {
          "internalType": "uint256",
          "name": "tokenId",
          "type": "uint256"
        }
      ],
      "name": "tokenURI",
      "outputs": [
        {
          "internalType": "string",
          "name": "",
          "type": "string"
        }
      ],
      "stateMutability": "view",
      "type": "function"
    },
    {
      "inputs": [],
      "name": "totalSupply",
      "outputs": [
        {
          "internalType": "uint256",
          "name": "",
          "type": "uint256"
        }
      ],
      "stateMutability": "view",
      "type": "function"
    },
    {
      "inputs": [
        {
          "internalType": "address",
          "name": "from",
          "type": "address"
        },
        {
          "internalType": "address",
          "name": "to",
          "type": "address"
        },
        {
          "internalType": "uint256",
          "name": "tokenId",
          "type": "uint256"
        }
      ],
      "name": "transferFrom",
      "outputs": [],
      "stateMutability": "nonpayable",
      "type": "function"
    },
    {
      "inputs": [
        {
          "internalType": "address",
          "name": "newOwner",
          "type": "address"
        }
      ],
      "name": "transferOwnership",
      "outputs": [],
      "stateMutability": "nonpayable",
      "type": "function"
    },
    {
      "inputs": [],
      "name": "withdrawMintFee",
      "outputs": [],
      "stateMutability": "nonpayable",
      "type": "function"
    }
  ],
  "bytecode": "0x60806040523480156200001157600080fd5b50604051620043ca380380620043ca8339818101604052810190620000379190620002f3565b6040518060400160405280601281526020017f447261676f6e42616c6c53757065724e465400000000000000000000000000008152506040518060400160405280600681526020017f4442534e465400000000000000000000000000000000000000000000000000008152508160009080519060200190620000bb92919062000215565b508060019080519060200190620000d492919062000215565b505050620000f7620000eb6200014760201b60201c565b6200014f60201b60201c565b80600d8190555081600e60006101000a81548173ffffffffffffffffffffffffffffffffffffffff021916908373ffffffffffffffffffffffffffffffffffffffff16021790555050506200041f565b600033905090565b6000600b60009054906101000a900473ffffffffffffffffffffffffffffffffffffffff16905081600b60006101000a81548173ffffffffffffffffffffffffffffffffffffffff021916908373ffffffffffffffffffffffffffffffffffffffff1602179055508173ffffffffffffffffffffffffffffffffffffffff168173ffffffffffffffffffffffffffffffffffffffff167f8be0079c531659141344cd1fd0a4f28419497f9722a3daafe3b4186f6b6457e060405160405180910390a35050565b828054620002239062000386565b90600052602060002090601f01602090048101928262000247576000855562000293565b82601f106200026257805160ff191683800117855562000293565b8280016001018555821562000293579182015b828111156200029257825182559160200191906001019062000275565b5b509050620002a29190620002a6565b5090565b5b80821115620002c1576000816000905550600101620002a7565b5090565b600081519050620002d681620003eb565b92915050565b600081519050620002ed8162000405565b92915050565b600080604083850312156200030757600080fd5b60006200031785828601620002c5565b92505060206200032a85828601620002dc565b9150509250929050565b600062000341826200035c565b9050919050565b6000620003558262000334565b9050919050565b600073ffffffffffffffffffffffffffffffffffffffff82169050919050565b6000819050919050565b600060028204905060018216806200039f57607f821691505b60208210811415620003b657620003b5620003bc565b5b50919050565b7f4e487b7100000000000000000000000000000000000000000000000000000000600052602260045260246000fd5b620003f68162000348565b81146200040257600080fd5b50565b62000410816200037c565b81146200041c57600080fd5b50565b613f9b806200042f6000396000f3fe608060405234801561001057600080fd5b50600436106101a95760003560e01c806370a08231116100f9578063b88d4fde11610097578063d204c45e11610071578063d204c45e146104aa578063d85d3d27146104c6578063e985e9c5146104e2578063f2fde38b14610512576101a9565b8063b88d4fde14610440578063c87b56dd1461045c578063d12397301461048c576101a9565b80637420aa36116100d35780637420aa36146103cc5780638da5cb5b146103e857806395d89b4114610406578063a22cb46514610424576101a9565b806370a0823114610388578063715018a6146103b8578063734b46fa146103c2576101a9565b806329aa1617116101665780634f6ccce7116101405780634f6ccce7146102ec578063561892361461031c5780636352211e1461033a5780636817c76c1461036a576101a9565b806329aa1617146102825780632f745c59146102a057806342842e0e146102d0576101a9565b806301ffc9a7146101ae57806306fdde03146101de578063081812fc146101fc578063095ea7b31461022c57806318160ddd1461024857806323b872dd14610266575b600080fd5b6101c860048036038101906101c39190612e66565b61052e565b6040516101d591906133ae565b60405180910390f35b6101e6610540565b6040516101f391906133e4565b60405180910390f35b61021660048036038101906102119190612ef9565b6105d2565b60405161022391906132e7565b60405180910390f35b61024660048036038101906102419190612dd8565b610618565b005b610250610730565b60405161025d9190613666565b60405180910390f35b610280600480360381019061027b9190612c7e565b61073d565b005b61028a61079d565b60405161029791906133c9565b60405180910390f35b6102ba60048036038101906102b59190612dd8565b6107c3565b6040516102c79190613666565b60405180910390f35b6102ea60048036038101906102e59190612c7e565b610868565b005b61030660048036038101906103019190612ef9565b610888565b6040516103139190613666565b60405180910390f35b61032461091f565b6040516103319190613666565b60405180910390f35b610354600480360381019061034f9190612ef9565b610930565b60405161036191906132e7565b60405180910390f35b6103726109b7565b60405161037f9190613666565b60405180910390f35b6103a2600480360381019061039d9190612c19565b6109bd565b6040516103af9190613666565b60405180910390f35b6103c0610a75565b005b6103ca610a89565b005b6103e660048036038101906103e19190612e14565b610bfa565b005b6103f0610c1f565b6040516103fd91906132e7565b60405180910390f35b61040e610c49565b60405161041b91906133e4565b60405180910390f35b61043e60048036038101906104399190612d48565b610cdb565b005b61045a60048036038101906104559190612ccd565b610cf1565b005b61047660048036038101906104719190612ef9565b610d53565b60405161048391906133e4565b60405180910390f35b610494610d65565b6040516104a191906133ae565b60405180910390f35b6104c460048036038101906104bf9190612d84565b610d78565b005b6104e060048036038101906104db9190612eb8565b610e00565b005b6104fc60048036038101906104f79190612c42565b610f86565b60405161050991906133ae565b60405180910390f35b61052c60048036038101906105279190612c19565b61101a565b005b60006105398261109e565b9050919050565b60606000805461054f906138e0565b80601f016020809104026020016040519081016040528092919081815260200182805461057b906138e0565b80156105c85780601f1061059d576101008083540402835291602001916105c8565b820191906000526020600020905b8154815290600101906020018083116105ab57829003601f168201915b5050505050905090565b60006105dd82611118565b6004600083815260200190815260200160002060009054906101000a900473ffffffffffffffffffffffffffffffffffffffff169050919050565b600061062382610930565b90508073ffffffffffffffffffffffffffffffffffffffff168373ffffffffffffffffffffffffffffffffffffffff161415610694576040517f08c379a000000000000000000000000000000000000000000000000000000000815260040161068b906135e6565b60405180910390fd5b8073ffffffffffffffffffffffffffffffffffffffff166106b3611163565b73ffffffffffffffffffffffffffffffffffffffff1614806106e257506106e1816106dc611163565b610f86565b5b610721576040517f08c379a000000000000000000000000000000000000000000000000000000000815260040161071890613606565b60405180910390fd5b61072b838361116b565b505050565b6000600980549050905090565b61074e610748611163565b82611224565b61078d576040517f08c379a000000000000000000000000000000000000000000000000000000000815260040161078490613406565b60405180910390fd5b6107988383836112b9565b505050565b600e60009054906101000a900473ffffffffffffffffffffffffffffffffffffffff1681565b60006107ce836109bd565b821061080f576040517f08c379a000000000000000000000000000000000000000000000000000000000815260040161080690613426565b60405180910390fd5b600760008473ffffffffffffffffffffffffffffffffffffffff1673ffffffffffffffffffffffffffffffffffffffff168152602001908152602001600020600083815260200190815260200160002054905092915050565b61088383838360405180602001604052806000815250610cf1565b505050565b6000610892610730565b82106108d3576040517f08c379a00000000000000000000000000000000000000000000000000000000081526004016108ca90613626565b60405180910390fd5b6009828154811061090d577f4e487b7100000000000000000000000000000000000000000000000000000000600052603260045260246000fd5b90600052602060002001549050919050565b600061092b600c6115b3565b905090565b60008061093c836115c1565b9050600073ffffffffffffffffffffffffffffffffffffffff168173ffffffffffffffffffffffffffffffffffffffff1614156109ae576040517f08c379a00000000000000000000000000000000000000000000000000000000081526004016109a5906135c6565b60405180910390fd5b80915050919050565b600d5481565b60008073ffffffffffffffffffffffffffffffffffffffff168273ffffffffffffffffffffffffffffffffffffffff161415610a2e576040517f08c379a0000000000000000000000000000000000000000000000000000000008152600401610a2590613506565b60405180910390fd5b600360008373ffffffffffffffffffffffffffffffffffffffff1673ffffffffffffffffffffffffffffffffffffffff168152602001908152602001600020549050919050565b610a7d6115fe565b610a87600061167c565b565b610a916115fe565b6000600e60009054906101000a900473ffffffffffffffffffffffffffffffffffffffff1673ffffffffffffffffffffffffffffffffffffffff166370a08231306040518263ffffffff1660e01b8152600401610aee91906132e7565b60206040518083038186803b158015610b0657600080fd5b505afa158015610b1a573d6000803e3d6000fd5b505050506040513d601f19601f82011682018060405250810190610b3e9190612f22565b9050600e60009054906101000a900473ffffffffffffffffffffffffffffffffffffffff1673ffffffffffffffffffffffffffffffffffffffff1663a9059cbb610b86610c1f565b836040518363ffffffff1660e01b8152600401610ba4929190613385565b602060405180830381600087803b158015610bbe57600080fd5b505af1158015610bd2573d6000803e3d6000fd5b505050506040513d601f19601f82011682018060405250810190610bf69190612e3d565b5050565b610c026115fe565b80600e60146101000a81548160ff02191690831515021790555050565b6000600b60009054906101000a900473ffffffffffffffffffffffffffffffffffffffff16905090565b606060018054610c58906138e0565b80601f0160208091040260200160405190810160405280929190818152602001828054610c84906138e0565b8015610cd15780601f10610ca657610100808354040283529160200191610cd1565b820191906000526020600020905b815481529060010190602001808311610cb457829003601f168201915b5050505050905090565b610ced610ce6611163565b8383611742565b5050565b610d02610cfc611163565b83611224565b610d41576040517f08c379a0000000000000000000000000000000000000000000000000000000008152600401610d3890613406565b60405180910390fd5b610d4d848484846118af565b50505050565b6060610d5e8261190b565b9050919050565b600e60149054906101000a900460ff1681565b610d806115fe565b600e60149054906101000a900460ff16610dcf576040517f08c379a0000000000000000000000000000000000000000000000000000000008152600401610dc6906135a6565b60405180910390fd5b6000610ddb600c6115b3565b9050610de7600c611a1e565b610df18382611a34565b610dfb8183611a52565b505050565b600e60149054906101000a900460ff16610e4f576040517f08c379a0000000000000000000000000000000000000000000000000000000008152600401610e46906135a6565b60405180910390fd5b6000610e5a336109bd565b14610e9a576040517f08c379a0000000000000000000000000000000000000000000000000000000008152600401610e9190613526565b60405180910390fd5b600e60009054906101000a900473ffffffffffffffffffffffffffffffffffffffff1673ffffffffffffffffffffffffffffffffffffffff166323b872dd3330600d546040518463ffffffff1660e01b8152600401610efb93929190613302565b602060405180830381600087803b158015610f1557600080fd5b505af1158015610f29573d6000803e3d6000fd5b505050506040513d601f19601f82011682018060405250810190610f4d9190612e3d565b506000610f5a600c6115b3565b9050610f66600c611a1e565b610f703382611a34565b610f7a8183611a52565b610f82611afd565b5050565b6000600560008473ffffffffffffffffffffffffffffffffffffffff1673ffffffffffffffffffffffffffffffffffffffff16815260200190815260200160002060008373ffffffffffffffffffffffffffffffffffffffff1673ffffffffffffffffffffffffffffffffffffffff16815260200190815260200160002060009054906101000a900460ff16905092915050565b6110226115fe565b600073ffffffffffffffffffffffffffffffffffffffff168173ffffffffffffffffffffffffffffffffffffffff161415611092576040517f08c379a000000000000000000000000000000000000000000000000000000000815260040161108990613466565b60405180910390fd5b61109b8161167c565b50565b60007f780e9d63000000000000000000000000000000000000000000000000000000007bffffffffffffffffffffffffffffffffffffffffffffffffffffffff1916827bffffffffffffffffffffffffffffffffffffffffffffffffffffffff19161480611111575061111082611b21565b5b9050919050565b61112181611b82565b611160576040517f08c379a0000000000000000000000000000000000000000000000000000000008152600401611157906135c6565b60405180910390fd5b50565b600033905090565b816004600083815260200190815260200160002060006101000a81548173ffffffffffffffffffffffffffffffffffffffff021916908373ffffffffffffffffffffffffffffffffffffffff160217905550808273ffffffffffffffffffffffffffffffffffffffff166111de83610930565b73ffffffffffffffffffffffffffffffffffffffff167f8c5be1e5ebec7d5bd14f71427d1e84f3dd0314c0f7b2291e5b200ac8c7c3b92560405160405180910390a45050565b60008061123083610930565b90508073ffffffffffffffffffffffffffffffffffffffff168473ffffffffffffffffffffffffffffffffffffffff16148061127257506112718185610f86565b5b806112b057508373ffffffffffffffffffffffffffffffffffffffff16611298846105d2565b73ffffffffffffffffffffffffffffffffffffffff16145b91505092915050565b8273ffffffffffffffffffffffffffffffffffffffff166112d982610930565b73ffffffffffffffffffffffffffffffffffffffff161461132f576040517f08c379a000000000000000000000000000000000000000000000000000000000815260040161132690613486565b60405180910390fd5b600073ffffffffffffffffffffffffffffffffffffffff168273ffffffffffffffffffffffffffffffffffffffff16141561139f576040517f08c379a0000000000000000000000000000000000000000000000000000000008152600401611396906134c6565b60405180910390fd5b6113ac8383836001611bc3565b8273ffffffffffffffffffffffffffffffffffffffff166113cc82610930565b73ffffffffffffffffffffffffffffffffffffffff1614611422576040517f08c379a000000000000000000000000000000000000000000000000000000000815260040161141990613486565b60405180910390fd5b6004600082815260200190815260200160002060006101000a81549073ffffffffffffffffffffffffffffffffffffffff02191690556001600360008573ffffffffffffffffffffffffffffffffffffffff1673ffffffffffffffffffffffffffffffffffffffff168152602001908152602001600020600082825403925050819055506001600360008473ffffffffffffffffffffffffffffffffffffffff1673ffffffffffffffffffffffffffffffffffffffff16815260200190815260200160002060008282540192505081905550816002600083815260200190815260200160002060006101000a81548173ffffffffffffffffffffffffffffffffffffffff021916908373ffffffffffffffffffffffffffffffffffffffff160217905550808273ffffffffffffffffffffffffffffffffffffffff168473ffffffffffffffffffffffffffffffffffffffff167fddf252ad1be2c89b69c2b068fc378daa952ba7f163c4a11628f55a4df523b3ef60405160405180910390a46115ae8383836001611bd6565b505050565b600081600001549050919050565b60006002600083815260200190815260200160002060009054906101000a900473ffffffffffffffffffffffffffffffffffffffff169050919050565b611606611163565b73ffffffffffffffffffffffffffffffffffffffff16611624610c1f565b73ffffffffffffffffffffffffffffffffffffffff161461167a576040517f08c379a000000000000000000000000000000000000000000000000000000000815260040161167190613586565b60405180910390fd5b565b6000600b60009054906101000a900473ffffffffffffffffffffffffffffffffffffffff16905081600b60006101000a81548173ffffffffffffffffffffffffffffffffffffffff021916908373ffffffffffffffffffffffffffffffffffffffff1602179055508173ffffffffffffffffffffffffffffffffffffffff168173ffffffffffffffffffffffffffffffffffffffff167f8be0079c531659141344cd1fd0a4f28419497f9722a3daafe3b4186f6b6457e060405160405180910390a35050565b8173ffffffffffffffffffffffffffffffffffffffff168373ffffffffffffffffffffffffffffffffffffffff1614156117b1576040517f08c379a00000000000000000000000000000000000000000000000000000000081526004016117a8906134e6565b60405180910390fd5b80600560008573ffffffffffffffffffffffffffffffffffffffff1673ffffffffffffffffffffffffffffffffffffffff16815260200190815260200160002060008473ffffffffffffffffffffffffffffffffffffffff1673ffffffffffffffffffffffffffffffffffffffff16815260200190815260200160002060006101000a81548160ff0219169083151502179055508173ffffffffffffffffffffffffffffffffffffffff168373ffffffffffffffffffffffffffffffffffffffff167f17307eab39ab6107e8899845ad3d59bd9653f200f220920489ca2b5937696c31836040516118a291906133ae565b60405180910390a3505050565b6118ba8484846112b9565b6118c684848484611bdc565b611905576040517f08c379a00000000000000000000000000000000000000000000000000000000081526004016118fc90613446565b60405180910390fd5b50505050565b606061191682611118565b6000600660008481526020019081526020016000208054611936906138e0565b80601f0160208091040260200160405190810160405280929190818152602001828054611962906138e0565b80156119af5780601f10611984576101008083540402835291602001916119af565b820191906000526020600020905b81548152906001019060200180831161199257829003601f168201915b5050505050905060006119c0611d73565b90506000815114156119d6578192505050611a19565b600082511115611a0b5780826040516020016119f39291906132c3565b60405160208183030381529060405292505050611a19565b611a1484611d8a565b925050505b919050565b6001816000016000828254019250508190555050565b611a4e828260405180602001604052806000815250611df2565b5050565b611a5b82611b82565b611a9a576040517f08c379a0000000000000000000000000000000000000000000000000000000008152600401611a9190613546565b60405180910390fd5b80600660008481526020019081526020016000209080519060200190611ac1929190612a13565b507ff8e1a15aba9398e019f0b49df1a4fde98ee17ae345cb5f6b5e2c27f5033e8ce782604051611af19190613666565b60405180910390a15050565b6064600d54611b0c91906137a1565b600d54611b19919061374b565b600d81905550565b6000634906490660e01b7bffffffffffffffffffffffffffffffffffffffffffffffffffffffff1916827bffffffffffffffffffffffffffffffffffffffffffffffffffffffff19161480611b7b5750611b7a82611e4d565b5b9050919050565b60008073ffffffffffffffffffffffffffffffffffffffff16611ba4836115c1565b73ffffffffffffffffffffffffffffffffffffffff1614159050919050565b611bd08484846001611f2f565b50505050565b50505050565b6000611bfd8473ffffffffffffffffffffffffffffffffffffffff1661208f565b15611d66578373ffffffffffffffffffffffffffffffffffffffff1663150b7a02611c26611163565b8786866040518563ffffffff1660e01b8152600401611c489493929190613339565b602060405180830381600087803b158015611c6257600080fd5b505af1925050508015611c9357506040513d601f19601f82011682018060405250810190611c909190612e8f565b60015b611d16573d8060008114611cc3576040519150601f19603f3d011682016040523d82523d6000602084013e611cc8565b606091505b50600081511415611d0e576040517f08c379a0000000000000000000000000000000000000000000000000000000008152600401611d0590613446565b60405180910390fd5b805181602001fd5b63150b7a0260e01b7bffffffffffffffffffffffffffffffffffffffffffffffffffffffff1916817bffffffffffffffffffffffffffffffffffffffffffffffffffffffff191614915050611d6b565b600190505b949350505050565b606060405180602001604052806000815250905090565b6060611d9582611118565b6000611d9f611d73565b90506000815111611dbf5760405180602001604052806000815250611dea565b80611dc9846120b2565b604051602001611dda9291906132c3565b6040516020818303038152906040525b915050919050565b611dfc83836121d6565b611e096000848484611bdc565b611e48576040517f08c379a0000000000000000000000000000000000000000000000000000000008152600401611e3f90613446565b60405180910390fd5b505050565b60007f80ac58cd000000000000000000000000000000000000000000000000000000007bffffffffffffffffffffffffffffffffffffffffffffffffffffffff1916827bffffffffffffffffffffffffffffffffffffffffffffffffffffffff19161480611f1857507f5b5e139f000000000000000000000000000000000000000000000000000000007bffffffffffffffffffffffffffffffffffffffffffffffffffffffff1916827bffffffffffffffffffffffffffffffffffffffffffffffffffffffff1916145b80611f285750611f27826123f4565b5b9050919050565b611f3b8484848461245e565b6001811115611f7f576040517f08c379a0000000000000000000000000000000000000000000000000000000008152600401611f7690613646565b60405180910390fd5b6000829050600073ffffffffffffffffffffffffffffffffffffffff168573ffffffffffffffffffffffffffffffffffffffff161415611fc757611fc281612464565b612006565b8373ffffffffffffffffffffffffffffffffffffffff168573ffffffffffffffffffffffffffffffffffffffff16146120055761200485826124ad565b5b5b600073ffffffffffffffffffffffffffffffffffffffff168473ffffffffffffffffffffffffffffffffffffffff161415612049576120448161261a565b612088565b8473ffffffffffffffffffffffffffffffffffffffff168473ffffffffffffffffffffffffffffffffffffffff161461208757612086848261275d565b5b5b5050505050565b6000808273ffffffffffffffffffffffffffffffffffffffff163b119050919050565b6060600060016120c1846127dc565b01905060008167ffffffffffffffff811115612106577f4e487b7100000000000000000000000000000000000000000000000000000000600052604160045260246000fd5b6040519080825280601f01601f1916602001820160405280156121385781602001600182028036833780820191505090505b509050600082602001820190505b6001156121cb578080600190039150507f3031323334353637383961626364656600000000000000000000000000000000600a86061a8153600a85816121b5577f4e487b7100000000000000000000000000000000000000000000000000000000600052601260045260246000fd5b04945060008514156121c6576121cb565b612146565b819350505050919050565b600073ffffffffffffffffffffffffffffffffffffffff168273ffffffffffffffffffffffffffffffffffffffff161415612246576040517f08c379a000000000000000000000000000000000000000000000000000000000815260040161223d90613566565b60405180910390fd5b61224f81611b82565b1561228f576040517f08c379a0000000000000000000000000000000000000000000000000000000008152600401612286906134a6565b60405180910390fd5b61229d600083836001611bc3565b6122a681611b82565b156122e6576040517f08c379a00000000000000000000000000000000000000000000000000000000081526004016122dd906134a6565b60405180910390fd5b6001600360008473ffffffffffffffffffffffffffffffffffffffff1673ffffffffffffffffffffffffffffffffffffffff16815260200190815260200160002060008282540192505081905550816002600083815260200190815260200160002060006101000a81548173ffffffffffffffffffffffffffffffffffffffff021916908373ffffffffffffffffffffffffffffffffffffffff160217905550808273ffffffffffffffffffffffffffffffffffffffff16600073ffffffffffffffffffffffffffffffffffffffff167fddf252ad1be2c89b69c2b068fc378daa952ba7f163c4a11628f55a4df523b3ef60405160405180910390a46123f0600083836001611bd6565b5050565b60007f01ffc9a7000000000000000000000000000000000000000000000000000000007bffffffffffffffffffffffffffffffffffffffffffffffffffffffff1916827bffffffffffffffffffffffffffffffffffffffffffffffffffffffff1916149050919050565b50505050565b600980549050600a600083815260200190815260200160002081905550600981908060018154018082558091505060019003906000526020600020016000909190919091505550565b600060016124ba846109bd565b6124c491906137d2565b90506000600860008481526020019081526020016000205490508181146125a9576000600760008673ffffffffffffffffffffffffffffffffffffffff1673ffffffffffffffffffffffffffffffffffffffff168152602001908152602001600020600084815260200190815260200160002054905080600760008773ffffffffffffffffffffffffffffffffffffffff1673ffffffffffffffffffffffffffffffffffffffff168152602001908152602001600020600084815260200190815260200160002081905550816008600083815260200190815260200160002081905550505b6008600084815260200190815260200160002060009055600760008573ffffffffffffffffffffffffffffffffffffffff1673ffffffffffffffffffffffffffffffffffffffff16815260200190815260200160002060008381526020019081526020016000206000905550505050565b6000600160098054905061262e91906137d2565b90506000600a6000848152602001908152602001600020549050600060098381548110612684577f4e487b7100000000000000000000000000000000000000000000000000000000600052603260045260246000fd5b9060005260206000200154905080600983815481106126cc577f4e487b7100000000000000000000000000000000000000000000000000000000600052603260045260246000fd5b906000526020600020018190555081600a600083815260200190815260200160002081905550600a6000858152602001908152602001600020600090556009805480612741577f4e487b7100000000000000000000000000000000000000000000000000000000600052603160045260246000fd5b6001900381819060005260206000200160009055905550505050565b6000612768836109bd565b905081600760008573ffffffffffffffffffffffffffffffffffffffff1673ffffffffffffffffffffffffffffffffffffffff168152602001908152602001600020600083815260200190815260200160002081905550806008600084815260200190815260200160002081905550505050565b600080600090507a184f03e93ff9f4daa797ed6e38ed64bf6a1f0100000000000000008310612860577a184f03e93ff9f4daa797ed6e38ed64bf6a1f0100000000000000008381612856577f4e487b7100000000000000000000000000000000000000000000000000000000600052601260045260246000fd5b0492506040810190505b6d04ee2d6d415b85acef810000000083106128c3576d04ee2d6d415b85acef810000000083816128b9577f4e487b7100000000000000000000000000000000000000000000000000000000600052601260045260246000fd5b0492506020810190505b662386f26fc10000831061291857662386f26fc10000838161290e577f4e487b7100000000000000000000000000000000000000000000000000000000600052601260045260246000fd5b0492506010810190505b6305f5e1008310612967576305f5e100838161295d577f4e487b7100000000000000000000000000000000000000000000000000000000600052601260045260246000fd5b0492506008810190505b61271083106129b25761271083816129a8577f4e487b7100000000000000000000000000000000000000000000000000000000600052601260045260246000fd5b0492506004810190505b606483106129fb57606483816129f1577f4e487b7100000000000000000000000000000000000000000000000000000000600052601260045260246000fd5b0492506002810190505b600a8310612a0a576001810190505b80915050919050565b828054612a1f906138e0565b90600052602060002090601f016020900481019282612a415760008555612a88565b82601f10612a5a57805160ff1916838001178555612a88565b82800160010185558215612a88579182015b82811115612a87578251825591602001919060010190612a6c565b5b509050612a959190612a99565b5090565b5b80821115612ab2576000816000905550600101612a9a565b5090565b6000612ac9612ac4846136a6565b613681565b905082815260208101848484011115612ae157600080fd5b612aec84828561389e565b509392505050565b6000612b07612b02846136d7565b613681565b905082815260208101848484011115612b1f57600080fd5b612b2a84828561389e565b509392505050565b600081359050612b4181613f09565b92915050565b600081359050612b5681613f20565b92915050565b600081519050612b6b81613f20565b92915050565b600081359050612b8081613f37565b92915050565b600081519050612b9581613f37565b92915050565b600082601f830112612bac57600080fd5b8135612bbc848260208601612ab6565b91505092915050565b600082601f830112612bd657600080fd5b8135612be6848260208601612af4565b91505092915050565b600081359050612bfe81613f4e565b92915050565b600081519050612c1381613f4e565b92915050565b600060208284031215612c2b57600080fd5b6000612c3984828501612b32565b91505092915050565b60008060408385031215612c5557600080fd5b6000612c6385828601612b32565b9250506020612c7485828601612b32565b9150509250929050565b600080600060608486031215612c9357600080fd5b6000612ca186828701612b32565b9350506020612cb286828701612b32565b9250506040612cc386828701612bef565b9150509250925092565b60008060008060808587031215612ce357600080fd5b6000612cf187828801612b32565b9450506020612d0287828801612b32565b9350506040612d1387828801612bef565b925050606085013567ffffffffffffffff811115612d3057600080fd5b612d3c87828801612b9b565b91505092959194509250565b60008060408385031215612d5b57600080fd5b6000612d6985828601612b32565b9250506020612d7a85828601612b47565b9150509250929050565b60008060408385031215612d9757600080fd5b6000612da585828601612b32565b925050602083013567ffffffffffffffff811115612dc257600080fd5b612dce85828601612bc5565b9150509250929050565b60008060408385031215612deb57600080fd5b6000612df985828601612b32565b9250506020612e0a85828601612bef565b9150509250929050565b600060208284031215612e2657600080fd5b6000612e3484828501612b47565b91505092915050565b600060208284031215612e4f57600080fd5b6000612e5d84828501612b5c565b91505092915050565b600060208284031215612e7857600080fd5b6000612e8684828501612b71565b91505092915050565b600060208284031215612ea157600080fd5b6000612eaf84828501612b86565b91505092915050565b600060208284031215612eca57600080fd5b600082013567ffffffffffffffff811115612ee457600080fd5b612ef084828501612bc5565b91505092915050565b600060208284031215612f0b57600080fd5b6000612f1984828501612bef565b91505092915050565b600060208284031215612f3457600080fd5b6000612f4284828501612c04565b91505092915050565b612f5481613806565b82525050565b612f6381613818565b82525050565b6000612f7482613708565b612f7e818561371e565b9350612f8e8185602086016138ad565b612f97816139ff565b840191505092915050565b612fab8161387a565b82525050565b6000612fbc82613713565b612fc6818561372f565b9350612fd68185602086016138ad565b612fdf816139ff565b840191505092915050565b6000612ff582613713565b612fff8185613740565b935061300f8185602086016138ad565b80840191505092915050565b6000613028602d8361372f565b915061303382613a10565b604082019050919050565b600061304b602b8361372f565b915061305682613a5f565b604082019050919050565b600061306e60328361372f565b915061307982613aae565b604082019050919050565b600061309160268361372f565b915061309c82613afd565b604082019050919050565b60006130b460258361372f565b91506130bf82613b4c565b604082019050919050565b60006130d7601c8361372f565b91506130e282613b9b565b602082019050919050565b60006130fa60248361372f565b915061310582613bc4565b604082019050919050565b600061311d60198361372f565b915061312882613c13565b602082019050919050565b600061314060298361372f565b915061314b82613c3c565b604082019050919050565b6000613163602b8361372f565b915061316e82613c8b565b604082019050919050565b6000613186602e8361372f565b915061319182613cda565b604082019050919050565b60006131a960208361372f565b91506131b482613d29565b602082019050919050565b60006131cc60208361372f565b91506131d782613d52565b602082019050919050565b60006131ef60138361372f565b91506131fa82613d7b565b602082019050919050565b600061321260188361372f565b915061321d82613da4565b602082019050919050565b600061323560218361372f565b915061324082613dcd565b604082019050919050565b6000613258603d8361372f565b915061326382613e1c565b604082019050919050565b600061327b602c8361372f565b915061328682613e6b565b604082019050919050565b600061329e60358361372f565b91506132a982613eba565b604082019050919050565b6132bd81613870565b82525050565b60006132cf8285612fea565b91506132db8284612fea565b91508190509392505050565b60006020820190506132fc6000830184612f4b565b92915050565b60006060820190506133176000830186612f4b565b6133246020830185612f4b565b61333160408301846132b4565b949350505050565b600060808201905061334e6000830187612f4b565b61335b6020830186612f4b565b61336860408301856132b4565b818103606083015261337a8184612f69565b905095945050505050565b600060408201905061339a6000830185612f4b565b6133a760208301846132b4565b9392505050565b60006020820190506133c36000830184612f5a565b92915050565b60006020820190506133de6000830184612fa2565b92915050565b600060208201905081810360008301526133fe8184612fb1565b905092915050565b6000602082019050818103600083015261341f8161301b565b9050919050565b6000602082019050818103600083015261343f8161303e565b9050919050565b6000602082019050818103600083015261345f81613061565b9050919050565b6000602082019050818103600083015261347f81613084565b9050919050565b6000602082019050818103600083015261349f816130a7565b9050919050565b600060208201905081810360008301526134bf816130ca565b9050919050565b600060208201905081810360008301526134df816130ed565b9050919050565b600060208201905081810360008301526134ff81613110565b9050919050565b6000602082019050818103600083015261351f81613133565b9050919050565b6000602082019050818103600083015261353f81613156565b9050919050565b6000602082019050818103600083015261355f81613179565b9050919050565b6000602082019050818103600083015261357f8161319c565b9050919050565b6000602082019050818103600083015261359f816131bf565b9050919050565b600060208201905081810360008301526135bf816131e2565b9050919050565b600060208201905081810360008301526135df81613205565b9050919050565b600060208201905081810360008301526135ff81613228565b9050919050565b6000602082019050818103600083015261361f8161324b565b9050919050565b6000602082019050818103600083015261363f8161326e565b9050919050565b6000602082019050818103600083015261365f81613291565b9050919050565b600060208201905061367b60008301846132b4565b92915050565b600061368b61369c565b90506136978282613912565b919050565b6000604051905090565b600067ffffffffffffffff8211156136c1576136c06139d0565b5b6136ca826139ff565b9050602081019050919050565b600067ffffffffffffffff8211156136f2576136f16139d0565b5b6136fb826139ff565b9050602081019050919050565b600081519050919050565b600081519050919050565b600082825260208201905092915050565b600082825260208201905092915050565b600081905092915050565b600061375682613870565b915061376183613870565b9250827fffffffffffffffffffffffffffffffffffffffffffffffffffffffffffffffff0382111561379657613795613943565b5b828201905092915050565b60006137ac82613870565b91506137b783613870565b9250826137c7576137c6613972565b5b828204905092915050565b60006137dd82613870565b91506137e883613870565b9250828210156137fb576137fa613943565b5b828203905092915050565b600061381182613850565b9050919050565b60008115159050919050565b60007fffffffff0000000000000000000000000000000000000000000000000000000082169050919050565b600073ffffffffffffffffffffffffffffffffffffffff82169050919050565b6000819050919050565b60006138858261388c565b9050919050565b600061389782613850565b9050919050565b82818337600083830152505050565b60005b838110156138cb5780820151818401526020810190506138b0565b838111156138da576000848401525b50505050565b600060028204905060018216806138f857607f821691505b6020821081141561390c5761390b6139a1565b5b50919050565b61391b826139ff565b810181811067ffffffffffffffff8211171561393a576139396139d0565b5b80604052505050565b7f4e487b7100000000000000000000000000000000000000000000000000000000600052601160045260246000fd5b7f4e487b7100000000000000000000000000000000000000000000000000000000600052601260045260246000fd5b7f4e487b7100000000000000000000000000000000000000000000000000000000600052602260045260246000fd5b7f4e487b7100000000000000000000000000000000000000000000000000000000600052604160045260246000fd5b6000601f19601f8301169050919050565b7f4552433732313a2063616c6c6572206973206e6f7420746f6b656e206f776e6560008201527f72206f7220617070726f76656400000000000000000000000000000000000000602082015250565b7f455243373231456e756d657261626c653a206f776e657220696e646578206f7560008201527f74206f6620626f756e6473000000000000000000000000000000000000000000602082015250565b7f4552433732313a207472616e7366657220746f206e6f6e20455243373231526560008201527f63656976657220696d706c656d656e7465720000000000000000000000000000602082015250565b7f4f776e61626c653a206e6577206f776e657220697320746865207a65726f206160008201527f6464726573730000000000000000000000000000000000000000000000000000602082015250565b7f4552433732313a207472616e736665722066726f6d20696e636f72726563742060008201527f6f776e6572000000000000000000000000000000000000000000000000000000602082015250565b7f4552433732313a20746f6b656e20616c7265616479206d696e74656400000000600082015250565b7f4552433732313a207472616e7366657220746f20746865207a65726f2061646460008201527f7265737300000000000000000000000000000000000000000000000000000000602082015250565b7f4552433732313a20617070726f766520746f2063616c6c657200000000000000600082015250565b7f4552433732313a2061646472657373207a65726f206973206e6f74206120766160008201527f6c6964206f776e65720000000000000000000000000000000000000000000000602082015250565b7f436f6d6d756e697479206d656d62657273206e6f7420616c6c6f77656420746f60008201527f206d696e74207477696365000000000000000000000000000000000000000000602082015250565b7f45524337323155524953746f726167653a2055524920736574206f66206e6f6e60008201527f6578697374656e7420746f6b656e000000000000000000000000000000000000602082015250565b7f4552433732313a206d696e7420746f20746865207a65726f2061646472657373600082015250565b7f4f776e61626c653a2063616c6c6572206973206e6f7420746865206f776e6572600082015250565b7f4d696e74696e67206e6f7420656e61626c656400000000000000000000000000600082015250565b7f4552433732313a20696e76616c696420746f6b656e2049440000000000000000600082015250565b7f4552433732313a20617070726f76616c20746f2063757272656e74206f776e6560008201527f7200000000000000000000000000000000000000000000000000000000000000602082015250565b7f4552433732313a20617070726f76652063616c6c6572206973206e6f7420746f60008201527f6b656e206f776e6572206f7220617070726f76656420666f7220616c6c000000602082015250565b7f455243373231456e756d657261626c653a20676c6f62616c20696e646578206f60008201527f7574206f6620626f756e64730000000000000000000000000000000000000000602082015250565b7f455243373231456e756d657261626c653a20636f6e736563757469766520747260008201527f616e7366657273206e6f7420737570706f727465640000000000000000000000602082015250565b613f1281613806565b8114613f1d57600080fd5b50565b613f2981613818565b8114613f3457600080fd5b50565b613f4081613824565b8114613f4b57600080fd5b50565b613f5781613870565b8114613f6257600080fd5b5056fea2646970667358221220bc9a4b709715e0b78ff586bd8564f415bec51232c9ceb104ea95ac05200541cb64736f6c63430008020033",
  "linkReferences": {},
  "deployedLinkReferences": {}
}